{"abi":[{"type":"constructor","inputs":[],"stateMutability":"nonpayable"},{"type":"function","name":"last_completed_migration","inputs":[],"outputs":[{"name":"","type":"uint256","internalType":"uint256"}],"stateMutability":"view"},{"type":"function","name":"owner","inputs":[],"outputs":[{"name":"","type":"address","internalType":"address"}],"stateMutability":"view"},{"type":"function","name":"setCompleted","inputs":[{"name":"completed","type":"uint256","internalType":"uint256"}],"outputs":[],"stateMutability":"nonpayable"},{"type":"function","name":"upgrade","inputs":[{"name":"new_address","type":"address","internalType":"address"}],"outputs":[],"stateMutability":"nonpayable"}],"bytecode":{"object":"0x608060405234801561001057600080fd5b50600080546001600160a01b031916331790556101eb806100326000396000f3fe608060405234801561001057600080fd5b506004361061004c5760003560e01c80630900f01014610051578063445df0ac146100665780638da5cb5b14610084578063fdacd57614610099575b600080fd5b61006461005f366004610152565b6100ac565b005b61006e610125565b60405161007b91906101ac565b60405180910390f35b61008c61012b565b60405161007b9190610198565b6100646100a7366004610180565b61013a565b6000546001600160a01b031633141561012257600154604051637ed66abb60e11b815282916001600160a01b0383169163fdacd576916100ee916004016101ac565b600060405180830381600087803b15801561010857600080fd5b505af115801561011c573d6000803e3d6000fd5b50505050505b50565b60015481565b6000546001600160a01b031681565b6000546001600160a01b031633141561012257600155565b600060208284031215610163578081fd5b81356001600160a01b0381168114610179578182fd5b9392505050565b600060208284031215610191578081fd5b5035919050565b6001600160a01b0391909116815260200190565b9081526020019056fea26469706673582212205923b43684da8459d0d32c456f58d83c623a269466937776f87c3f414e4d5ba664736f6c63430007060033","linkReferences":{}},"methodIdentifiers":{"last_completed_migration()":"445df0ac","owner()":"8da5cb5b","setCompleted(uint256)":"fdacd576","upgrade(address)":"0900f010"},"id":1}