{"abi":[{"type":"function","name":"MAX_OWNER_COUNT","inputs":[],"outputs":[{"name":"","type":"uint256","internalType":"uint256"}],"stateMutability":"view"},{"type":"function","name":"confirmTransaction","inputs":[{"name":"transactionId","type":"uint256","internalType":"uint256"},{"name":"executeIfReady","type":"bool","internalType":"bool"}],"outputs":[],"stateMutability":"nonpayable"},{"type":"function","name":"diamondCut","inputs":[{"name":"_diamondCut","type":"tuple[]","internalType":"struct IDiamondCut.FacetCut[]","components":[{"name":"facetAddress","type":"address","internalType":"address"},{"name":"action","type":"uint8","internalType":"enum IDiamondCut.FacetCutAction"},{"name":"functionSelectors","type":"bytes4[]","internalType":"bytes4[]"}]},{"name":"_init","type":"address","internalType":"address"},{"name":"_calldata","type":"bytes","internalType":"bytes"}],"outputs":[],"stateMutability":"nonpayable"},{"type":"function","name":"executeDiamondCutProposal","inputs":[{"name":"proposalId","type":"uint256","internalType":"uint256"}],"outputs":[],"stateMutability":"nonpayable"},{"type":"function","name":"executeTransaction","inputs":[{"name":"transactionId","type":"uint256","internalType":"uint256"}],"outputs":[],"stateMutability":"nonpayable"},{"type":"function","name":"getDiamondCutProposal","inputs":[{"name":"proposalId","type":"uint256","internalType":"uint256"}],"outputs":[{"name":"facetCuts","type":"tuple[]","internalType":"struct IDiamondCut.FacetCut[]","components":[{"name":"facetAddress","type":"address","internalType":"address"},{"name":"action","type":"uint8","internalType":"enum IDiamondCut.FacetCutAction"},{"name":"functionSelectors","type":"bytes4[]","internalType":"bytes4[]"}]},{"name":"init","type":"address","internalType":"address"},{"name":"initCalldata","type":"bytes","internalType":"bytes"},{"name":"label","type":"string","internalType":"string"},{"name":"executed","type":"bool","internalType":"bool"}],"stateMutability":"view"},{"type":"function","name":"getErc20Address","inputs":[],"outputs":[{"name":"","type":"address","internalType":"address"}],"stateMutability":"view"},{"type":"function","name":"getSigners","inputs":[{"name":"transactionId","type":"uint256","internalType":"uint256"}],"outputs":[{"name":"","type":"address[]","internalType":"address[]"}],"stateMutability":"view"},{"type":"function","name":"getTransactionCount","inputs":[{"name":"pending","type":"bool","internalType":"bool"},{"name":"executed","type":"bool","internalType":"bool"}],"outputs":[{"name":"count","type":"uint256","internalType":"uint256"}],"stateMutability":"view"},{"type":"function","name":"initializeMultisig","inputs":[{"name":"erc20Address","type":"address","internalType":"address"},{"name":"_required","type":"uint256","internalType":"uint256"}],"outputs":[],"stateMutability":"nonpayable"},{"type":"function","name":"submitDiamondCutProposal","inputs":[{"name":"_facetCuts","type":"tuple[]","internalType":"struct IDiamondCut.FacetCut[]","components":[{"name":"facetAddress","type":"address","internalType":"address"},{"name":"action","type":"uint8","internalType":"enum IDiamondCut.FacetCutAction"},{"name":"functionSelectors","type":"bytes4[]","internalType":"bytes4[]"}]},{"name":"_init","type":"address","internalType":"address"},{"name":"_initCalldata","type":"bytes","internalType":"bytes"},{"name":"_label","type":"string","internalType":"string"}],"outputs":[{"name":"proposalId","type":"uint256","internalType":"uint256"}],"stateMutability":"nonpayable"},{"type":"function","name":"submitTransaction","inputs":[{"name":"destination","type":"address","internalType":"address"},{"name":"value","type":"uint256","internalType":"uint256"},{"name":"data","type":"bytes","internalType":"bytes"}],"outputs":[{"name":"transactionId","type":"uint256","internalType":"uint256"}],"stateMutability":"nonpayable"},{"type":"event","name":"Confirmation","inputs":[{"name":"sender","type":"address","indexed":true,"internalType":"address"},{"name":"transactionId","type":"uint256","indexed":true,"internalType":"uint256"}],"anonymous":false},{"type":"event","name":"Deposit","inputs":[{"name":"sender","type":"address","indexed":true,"internalType":"address"},{"name":"value","type":"uint256","indexed":false,"internalType":"uint256"}],"anonymous":false},{"type":"event","name":"DiamondCut","inputs":[{"name":"_diamondCut","type":"tuple[]","indexed":false,"internalType":"struct IDiamondCut.FacetCut[]","components":[{"name":"facetAddress","type":"address","internalType":"address"},{"name":"action","type":"uint8","internalType":"enum IDiamondCut.FacetCutAction"},{"name":"functionSelectors","type":"bytes4[]","internalType":"bytes4[]"}]},{"name":"_init","type":"address","indexed":false,"internalType":"address"},{"name":"_calldata","type":"bytes","indexed":false,"internalType":"bytes"}],"anonymous":false},{"type":"event","name":"DiamondCutProposalExecuted","inputs":[{"name":"proposalId","type":"uint256","indexed":true,"internalType":"uint256"},{"name":"label","type":"string","indexed":false,"internalType":"string"}],"anonymous":false},{"type":"event","name":"DiamondCutProposalSubmitted","inputs":[{"name":"proposalId","type":"uint256","indexed":true,"internalType":"uint256"},{"name":"label","type":"string","indexed":false,"internalType":"string"}],"anonymous":false},{"type":"event","name":"Execution","inputs":[{"name":"transactionId","type":"uint256","indexed":true,"internalType":"uint256"}],"anonymous":false},{"type":"event","name":"ExecutionFailure","inputs":[{"name":"transactionId","type":"uint256","indexed":true,"internalType":"uint256"}],"anonymous":false},{"type":"event","name":"OwnerAddition","inputs":[{"name":"owner","type":"address","indexed":true,"internalType":"address"}],"anonymous":false},{"type":"event","name":"OwnerRemoval","inputs":[{"name":"owner","type":"address","indexed":true,"internalType":"address"}],"anonymous":false},{"type":"event","name":"RequirementChange","inputs":[{"name":"required","type":"uint256","indexed":false,"internalType":"uint256"}],"anonymous":false},{"type":"event","name":"Revocation","inputs":[{"name":"sender","type":"address","indexed":true,"internalType":"address"},{"name":"transactionId","type":"uint256","indexed":true,"internalType":"uint256"}],"anonymous":false},{"type":"event","name":"Submission","inputs":[{"name":"transactionId","type":"uint256","indexed":true,"internalType":"uint256"}],"anonymous":false},{"type":"error","name":"ErrorTxnotConfirmed","inputs":[{"name":"transactionId","type":"uint256","internalType":"uint256"}]}],"bytecode":{"object":"0x60808060405234601557612d38908161001a8239f35b5f80fdfe6080806040526004361015610012575f80fd5b5f3560e01c9081631f931c1c1461148357508063314f0df714611177578063472d3b1d146110a55780635474152514610fd75780635fc7ba5714610e8c5780639dda361b146107e3578063c2312836146107af578063c6427474146104a9578063c6a725d814610238578063d74f8edd1461021d578063dfceceae146101595763ee22610b146100a0575f80fd5b34610155576020366003190112610155576004355f8181525f516020612c435f395f51905f5260205260409020546100e2906001600160a01b03161515612302565b805f525f516020612c435f395f51905f5260205260ff600360405f200154166101105761010e9061261e565b005b60405162461bcd60e51b815260206004820152601f60248201527f4d756c746973696746616365743a20416c7265616479206578656375746564006044820152606490fd5b5f80fd5b34610155576020366003190112610155576004355f525f516020612c635f395f51905f5260205260405f20604051806020835491828152019081935f5260205f20905f5b8181106101fe57505050816101b3910382611e8b565b604051918291602083019060208452518091526040830191905f5b8181106101dc575050500390f35b82516001600160a01b03168452859450602093840193909201916001016101ce565b82546001600160a01b031684526020909301926001928301920161019d565b34610155575f36600319011261015557602060405160328152f35b3461015557604036600319011261015557600435610254611e46565b5f8281525f516020612c435f395f51905f526020526040902054610282906001600160a01b03161515612302565b5f8281525f516020612ce35f395f51905f526020908152604080832033845290915290205460ff16610465575f516020612be35f395f51905f52546040516370a0823160e01b815233600482015290602090829060249082906001600160a01b03165afa90811561045a575f91610428575b5080156103c657825f525f516020612ce35f395f51905f5260205260405f2060018060a01b0333165f5260205260405f20600160ff19825416179055825f525f516020612c635f395f51905f526020526103513360405f20612407565b825f525f516020612ca35f395f51905f5260205260405f2060018060a01b0333165f5260205260405f205581337f4a504a94899432a9846e1aa406dceb1bcfd538bb839071d49d1e5e23f5be30ef5f80a3806103b7575b6103ae57005b61010e9061261e565b506103c181612437565b6103a8565b60405162461bcd60e51b815260206004820152603460248201527f4d756c746973696746616365743a20496e73756666696369656e742045524332604482015273302062616c616e636520746f20636f6e6669726d60601b6064820152608490fd5b90506020813d602011610452575b8161044360209383611e8b565b810103126101555751836102f4565b3d9150610436565b6040513d5f823e3d90fd5b606460405162461bcd60e51b815260206004820152602060248201527f4d756c746973696746616365743a20416c726561647920636f6e6669726d65646044820152fd5b34610155576060366003190112610155576104c2611d4d565b6044356001600160401b038111610155576104e1903690600401612038565b906001600160a01b0316801561075f5761058f9060035f516020612cc35f395f51905f5254936040519261051484611e70565b8352602435602080850191825260408086019384525f606087018181528982525f516020612c435f395f51905f5290935220945185546001600160a01b0319166001600160a01b0391909116178555905160018501559051610579906002850161223f565b51151591019060ff801983541691151516179055565b6105a65f516020612cc35f395f51905f525461219a565b5f516020612cc35f395f51905f5255807fc0ba8fe4b176c1714197d43b9cc6bcf797a4a7461c5fe8d0ef6e184ae7601e515f80a25f8181525f516020612c435f395f51905f526020526040902054610608906001600160a01b03161515612302565b5f8181525f516020612ce35f395f51905f526020908152604080832033845290915290205460ff16610465575f516020612be35f395f51905f52546040516370a0823160e01b81523360048201529190602090839060249082906001600160a01b03165afa91821561045a575f9261072b575b5081156103c6575f8181525f516020612ce35f395f51905f526020908152604080832033808552908352818420805460ff191660011790558484525f516020612c635f395f51905f52835292209093916106d491612407565b815f525f516020612ca35f395f51905f52835260405f2060018060a01b0333165f52835260405f205580337f4a504a94899432a9846e1aa406dceb1bcfd538bb839071d49d1e5e23f5be30ef5f80a3604051908152f35b9091506020813d602011610757575b8161074760209383611e8b565b810103126101555751908261067b565b3d915061073a565b60405162461bcd60e51b815260206004820152602260248201527f4d756c746973696746616365743a20496e76616c69642064657374696e61746960448201526137b760f11b6064820152608490fd5b34610155575f366003190112610155575f516020612be35f395f51905f52546040516001600160a01b039091168152602090f35b34610155576080366003190112610155576004356001600160401b038111610155573660238201121561015557610824903690602481600401359101611ec3565b61082c611d37565b6044356001600160401b0381116101555761084b903690600401612038565b6064356001600160401b03811161015557366023820112156101555761087b903690602481600401359101612002565b91604051916307e4c70760e21b60208401526108ae836108a0838589602485016121bc565b03601f198101855284611e8b565b301561075f5761093b5f516020612cc35f395f51905f5254936003604051916108d683611e70565b3083525f60208085018281526040808701948552606087018481528b85525f516020612c435f395f51905f52909352909220945185546001600160a01b0319166001600160a01b0391909116178555905160018501559051610579906002850161223f565b6109525f516020612cc35f395f51905f525461219a565b5f516020612cc35f395f51905f5255827fc0ba8fe4b176c1714197d43b9cc6bcf797a4a7461c5fe8d0ef6e184ae7601e515f80a25f8381525f516020612c435f395f51905f5260205260409020546109b4906001600160a01b03161515612302565b5f8381525f516020612ce35f395f51905f526020908152604080832033845290915290205460ff16610465575f516020612be35f395f51905f52546040516370a0823160e01b815233600482015290602090829060249082906001600160a01b03165afa90811561045a575f91610e5a575b5080156103c657835f525f516020612ce35f395f51905f5260205260405f2060018060a01b0333165f5260205260405f20600160ff19825416179055835f525f516020612c635f395f51905f52602052610a833360405f20612407565b835f525f516020612ca35f395f51905f5260205260405f2060018060a01b0333165f5260205260405f205582337f4a504a94899432a9846e1aa406dceb1bcfd538bb839071d49d1e5e23f5be30ef5f80a360405191610ae183611e70565b6001600160a01b039081168352602080840192835260408085018781525f606087018181528882527f337982b4a2f8b4593b3a06c087bfa2b1b0164e42e863750f9d819b4580cc640c90945291909120945185546001600160a01b03191693169290921784559151610b56906001850161223f565b51805160028401916001600160401b038211610d5057610b8082610b7a85546120cd565b856121f0565b602090601f8311600114610df05782610bd096959360039593610bb8935f92610de5575b50508160011b915f199060031b1c19161790565b905551151591019060ff801983541691151516179055565b5f5b8351811015610d9f575f8281525f516020612c235f395f51905f5260205260409020610c13906001600160a01b03610c0a8488612186565b51511690612407565b815f527f337982b4a2f8b4593b3a06c087bfa2b1b0164e42e863750f9d819b4580cc640a60205260405f20610c546020610c4d8488612186565b510161242a565b906003821015610d8b578054600160401b811015610d5057610c7b916001820181556120af565b60ff80839493549260031b9316831b921b1916179055815f527f337982b4a2f8b4593b3a06c087bfa2b1b0164e42e863750f9d819b4580cc640b60205260405f20906040610cc98287612186565b510151916040519283604081019160208083015280518093526020606083019101925f905b808210610d64575050610d0a925003601f198101855284611e8b565b8054600160401b811015610d5057610d279160018201815561209a565b610d3d57600192610d379161223f565b01610bd2565b634e487b7160e01b5f525f60045260245ffd5b634e487b7160e01b5f52604160045260245ffd5b84516001600160e01b03191683526020948501948894509092019160019190910190610cee565b634e487b7160e01b5f52602160045260245ffd5b50807fbb531b035043a23626af8c80867edaf5d99143dacafb0392e11353ff604e5570610dda60209460405191829187835287830190611e22565b0390a2604051908152f35b015190508b80610ba4565b90601f19831691845f52815f20925f5b818110610e425750926001928592610bd09998966003989610610e2b575b505050811b019055610579565b01515f1983881b60f8161c191690558a8080610e1e565b92936020600181928786015181550195019301610e00565b90506020813d602011610e84575b81610e7560209383611e8b565b81010312610155575186610a26565b3d9150610e68565b3461015557602036600319011261015557600435805f527f337982b4a2f8b4593b3a06c087bfa2b1b0164e42e863750f9d819b4580cc640c60205260405f206003810160ff815416610f7f575f8381525f516020612c435f395f51905f526020526040902054610f06906001600160a01b03161515612302565b825f525f516020612c435f395f51905f5260205260ff600360405f20015416610110577f44e876d367cb04b52a0ddf76075551fe774e6f61547a4405c83b6b1654f7ec4691610f7a91610f588561261e565b600160ff19825416179055604051918291602083526002602084019101612105565b0390a2005b60405162461bcd60e51b815260206004820152602a60248201527f4469616d6f6e6443757446616365743a2050726f706f73616c20616c726561646044820152691e48195e1958dd5d195960b21b6064820152608490fd5b3461015557604036600319011261015557600435801515810361015557610ffc611e46565b5f915f915f516020612cc35f395f51905f5254925b83811061102357602085604051908152f35b828061107f575b8015611052575b61103e575b600101611011565b9361104a60019161219a565b949050611036565b508180156110315750805f525f516020612c435f395f51905f5260205260ff600360405f20015416611031565b50805f525f516020612c435f395f51905f5260205260ff600360405f200154161561102a565b34610155576040366003190112610155576001600160a01b036110c6611d4d565b168015611126576024357f4f3013c7b1e6655618f4cf0d94e4db7df74d61803838fc575c18cddf60dc3a11556bffffffffffffffffffffffff60a01b5f516020612be35f395f51905f525416175f516020612be35f395f51905f52555f80f35b60405162461bcd60e51b8152602060048201526024808201527f4d756c746973696746616365743a20496e76616c6964204552433230206164646044820152637265737360e01b6064820152608490fd5b3461015557602036600319011261015557600435805f527f337982b4a2f8b4593b3a06c087bfa2b1b0164e42e863750f9d819b4580cc640c60205260405f20815f525f516020612c235f395f51905f5260205260405f2054916111d983611eac565b926111e76040519485611e8b565b8084526111f6601f1991611eac565b015f5b818110611459575050905f915b805f525f516020612c235f395f51905f5260205260405f20548310156113c257805f525f516020612c235f395f51905f526020526112478360405f2061209a565b60018060a01b0391549060031b1c1692815f527f337982b4a2f8b4593b3a06c087bfa2b1b0164e42e863750f9d819b4580cc640a60205260ff61128d8260405f206120af565b90549060031b1c16936003851015610d8b576112e794835f527f337982b4a2f8b4593b3a06c087bfa2b1b0164e42e863750f9d819b4580cc640b6020526112ee6112da8460405f2061209a565b5060405197888092612105565b0387611e8b565b8551860195602081818901980312610155576020810151906001600160401b03821161015557019086603f830112156101555760208201519661133088611eac565b9261133e6040519485611e8b565b8884526020808086019a60051b8301010191821161015557604001975b8189106113a15750506001949596506040519261137784611e55565b83526020830152604082015261138d8287612186565b526113988186612186565b50019190611206565b88516001600160e01b0319811681036101555781526020988901980161135b565b61142c848361144d600261143f60018060a01b0384541660ff6003860154169461141860405191611401836113fa8160018501612105565b0384611e8b565b6114116040518097819301612105565b0385611e8b565b60405197889760a0895260a0890190611d63565b9160208801528682036040880152611e22565b908482036060860152611e22565b90151560808301520390f35b60209060405161146881611e55565b5f81525f8382015260606040820152828288010152016111f9565b34610155576060366003190112610155576004356001600160401b03811161015557366023820112156101555780600401356001600160401b038111610155573660248260051b84010111610155576114da611d37565b91604435916001600160401b0383116101555736602384011215610155578260040135946001600160401b038611610155573660248786010111610155577fc8fcad8db84d3cc18b4c41d551ea0ee66dd599cde068d998e57d5e09332c1320546001600160a01b03163303611cea57509161155e6115699286946024369201611ec3565b926024369201612002565b915f915b8051831015611abd576115856020610c4d8584612186565b6003811015610d8b57806117685750906001600160a01b036115a78484612186565b5151169160406115b78583612186565b510151906115c78251151561275c565b6115d28415156127bc565b61ffff6115de85612360565b541690811561171b575b6001600160a01b03851696935f925b8451841015611705576001600160e01b03196116138587612186565b51165f8181525f516020612c035f395f51905f5260205260409020546001600160a01b03166116a2576001918161165561169a936116508c612360565b612886565b5f9081525f516020612c035f395f51905f5260205260409020805461ffff60a01b198d166001600160b01b03199091161760a083901b61ffff60a01b161790556128c6565b9301926115f7565b60405162461bcd60e51b815260206004820152603560248201527f4c69624469616d6f6e644375743a2043616e2774206164642066756e6374696f6044820152746e207468617420616c72656164792065786973747360581b6064820152608490fd5b5095925095505060019192505b0191909261156d565b61172c61172661281d565b86612bb5565b61ffff5f516020612c835f395f51905f52541661ffff600161174d88612360565b01911661ffff1982541617905561176385612398565b6115e8565b600181036119695750906001600160a01b036117848484612186565b5151169160406117948583612186565b510151906117a48251151561275c565b6117af8415156127bc565b61ffff6117bb85612360565b5416908115611922575b6001600160a01b03851696935f925b8451841015611911576001600160e01b03196117f08587612186565b511690815f525f516020612c035f395f51905f5260205260018060a01b0360405f205416908882146118a6578261182c60019461189e946128d9565b5f8181525f516020612c035f395f51905f5260205260409020805461ffff60a01b191660a084901b61ffff60a01b1617905561186b816116508c612360565b5f525f516020612c035f395f51905f5260205260405f208b6bffffffffffffffffffffffff60a01b8254161790556128c6565b9301926117d4565b60405162461bcd60e51b815260206004820152603860248201527f4c69624469616d6f6e644375743a2043616e2774207265706c6163652066756e60448201527f6374696f6e20776974682073616d652066756e6374696f6e00000000000000006064820152608490fd5b509592509550506001919250611712565b61192d61172661281d565b61ffff5f516020612c835f395f51905f52541661ffff600161194e88612360565b01911661ffff1982541617905561196485612398565b6117c5565b600203611a68576001600160a01b036119828483612186565b5151169160406119928584612186565b510151926119a28451151561275c565b611a04575f5b83518110156119f7576001906119f16001600160e01b03196119ca8388612186565b5116805f525f516020612c035f395f51905f52602052838060a01b0360405f2054166128d9565b016119a8565b5092600191949250611712565b60405162461bcd60e51b815260206004820152603660248201527f4c69624469616d6f6e644375743a2052656d6f76652066616365742061646472604482015275657373206d757374206265206164647265737328302960501b6064820152608490fd5b60405162461bcd60e51b815260206004820152602760248201527f4c69624469616d6f6e644375743a20496e636f727265637420466163657443756044820152663a20b1ba34b7b760c91b6064820152608490fd5b907f8faa70878671ccd212d20771b795c50af8fd3ff6cf27f4bde57e5d4de0aeb673818593611af285604051938493846121bc565b0390a16001600160a01b03811680611b7857505051611b0d57005b60405162461bcd60e51b815260206004820152603c60248201527f4c69624469616d6f6e644375743a205f696e697420697320616464726573732860448201527f3029206275745f63616c6c64617461206973206e6f7420656d707479000000006064820152608490fd5b9091805115611c7f575f9283923003611c28575b602082519201905af4611b9d6125ef565b9015611ba557005b805115611bd45760405162461bcd60e51b815260206004820152908190611bd0906024830190611e22565b0390fd5b60405162461bcd60e51b815260206004820152602660248201527f4c69624469616d6f6e644375743a205f696e69742066756e6374696f6e2072656044820152651d995c9d195960d21b6064820152608490fd5b611c7a604051611c39606082611e8b565b602881527f4c69624469616d6f6e644375743a205f696e6974206164647265737320686173602082015267206e6f20636f646560c01b604082015282612bb5565b611b8c565b60405162461bcd60e51b815260206004820152603d60248201527f4c69624469616d6f6e644375743a205f63616c6c6461746120697320656d707460448201527f7920627574205f696e6974206973206e6f7420616464726573732830290000006064820152608490fd5b62461bcd60e51b815260206004820152602260248201527f4c69624469616d6f6e643a204d75737420626520636f6e7472616374206f776e60448201526132b960f11b6064820152608490fd5b602435906001600160a01b038216820361015557565b600435906001600160a01b038216820361015557565b9080602083519182815201916020808360051b8301019401925f915b838310611d8e57505050505090565b9091929394601f198282030183528551606082019060018060a01b0381511683526020810151906003821015610d8b57604060809160209384870152015193606060408201528451809452019201905f905b808210611dff5750505060208060019297019301930191939290611d7f565b82516001600160e01b031916845260209384019390920191600190910190611de0565b805180835260209291819084018484015e5f828201840152601f01601f1916010190565b60243590811515820361015557565b606081019081106001600160401b03821117610d5057604052565b608081019081106001600160401b03821117610d5057604052565b90601f801991011681019081106001600160401b03821117610d5057604052565b6001600160401b038111610d505760051b60200190565b92919092611ed084611eac565b93611ede6040519586611e8b565b602085828152019060051b8201918383116101555780915b838310611f04575050505050565b82356001600160401b0381116101555782016060818703126101555760405190611f2d82611e55565b80356001600160a01b0381168103610155578252602081013560038110156101555760208301526040810135906001600160401b038211610155570186601f82011215610155578035611f7f81611eac565b91611f8d6040519384611e8b565b81835260208084019260051b8201019089821161015557602001915b818310611fc6575050506040820152815260209283019201611ef6565b82356001600160e01b03198116810361015557815260209283019201611fa9565b6001600160401b038111610d5057601f01601f191660200190565b92919261200e82611fe7565b9161201c6040519384611e8b565b829481845281830111610155578281602093845f960137010152565b9080601f830112156101555781602061205393359101612002565b90565b5f516020612c835f395f51905f5254811015612086575f516020612c835f395f51905f525f5260205f2001905f90565b634e487b7160e01b5f52603260045260245ffd5b8054821015612086575f5260205f2001905f90565b9190918054831015612086575f52601f60205f208360051c01921690565b90600182811c921680156120fb575b60208310146120e757565b634e487b7160e01b5f52602260045260245ffd5b91607f16916120dc565b5f9291815491612114836120cd565b8083529260018116908115612169575060011461213057505050565b5f9081526020812093945091925b83831061214f575060209250010190565b60018160209294939454838587010152019101919061213e565b915050602093945060ff929192191683830152151560051b010190565b80518210156120865760209160051b010190565b5f1981146121a85760010190565b634e487b7160e01b5f52601160045260245ffd5b6121d26120539492606083526060830190611d63565b6001600160a01b039093166020820152808303604090910152611e22565b601f82116121fd57505050565b5f5260205f20906020601f840160051c83019310612235575b601f0160051c01905b81811061222a575050565b5f815560010161221f565b9091508190612216565b91909182516001600160401b038111610d50576122668161226084546120cd565b846121f0565b6020601f82116001146122a45781906122959394955f926122995750508160011b915f199060031b1c19161790565b9055565b015190505f80610ba4565b601f19821690835f52805f20915f5b8181106122ea575095836001959697106122d2575b505050811b019055565b01515f1960f88460031b161c191690555f80806122c8565b9192602060018192868b0151815501940192016122b3565b1561230957565b60405162461bcd60e51b815260206004820152602960248201527f4d756c746973696746616365743a205472616e73616374696f6e20646f6573206044820152681b9bdd08195e1a5cdd60ba1b6064820152608490fd5b6001600160a01b03165f9081527fc8fcad8db84d3cc18b4c41d551ea0ee66dd599cde068d998e57d5e09332c131d6020526040902090565b5f516020612c835f395f51905f525490600160401b821015610d50576123e182600161240594015f516020612c835f395f51905f52555f516020612c835f395f51905f5261209a565b81546001600160a01b0393841660039290921b91821b9390911b1916919091179055565b565b90815491600160401b831015610d5057826123e19160016124059501815561209a565b516003811015610d8b5790565b5f516020612be35f395f51905f52546040516318160ddd60e01b81525f93909291602090849060049082906001600160a01b03165afa92831561045a575f936125bb575b505f5b825f525f516020612c635f395f51905f5260205260405f205481101561254857825f525f516020612c635f395f51905f526020526124bf8160405f2061209a565b90545f8581525f516020612ce35f395f51905f526020908152604080832060039590951b9390931c6001600160a01b0316808352939052205460ff16612509575b5060010161247e565b835f969296525f516020612ca35f395f51905f5260205260405f209060018060a01b03165f5260205260405f205481018091116121a857936001612500565b509290508115918215928361255e575b50505090565b909192506064830292808404606414901517156121a8576125a7577f4f3013c7b1e6655618f4cf0d94e4db7df74d61803838fc575c18cddf60dc3a1154910410155f8080612558565b634e487b7160e01b5f52601260045260245ffd5b9092506020813d6020116125e7575b816125d760209383611e8b565b810103126101555751915f61247b565b3d91506125ca565b3d15612619573d9061260082611fe7565b9161260e6040519384611e8b565b82523d5f602084013e565b606090565b61262781612437565b1561274a57805f525f516020612c435f395f51905f5260205260405f206003810190600160ff1983541617825560018060a01b038154169060026001820154910190604051915f9080549061267b826120cd565b91600181169081156127335750600114612701575b5050915f939181859403925af16126a56125ef565b50156126d257507f33e13ecb54c3076d8e8bb8c2881800a4d972b792045ffae98fdf46df365fed755f80a2565b907f526441bb6c1aba3c9a4a6ca1d6545da9c2333c8c48343ef398eb858d72b792365f80a2805460ff19169055565b9091505f5260205f205f905b82821061271f57505082018183612690565b60018160209254848801520191019061270d565b60ff19168652505080151502830190508183612690565b63caca7d3160e01b5f5260045260245ffd5b1561276357565b60405162461bcd60e51b815260206004820152602b60248201527f4c69624469616d6f6e644375743a204e6f2073656c6563746f727320696e206660448201526a1858d95d081d1bc818dd5d60aa1b6064820152608490fd5b156127c357565b60405162461bcd60e51b815260206004820152602c60248201527f4c69624469616d6f6e644375743a204164642066616365742063616e2774206260448201526b65206164647265737328302960a01b6064820152608490fd5b6040519061282c606083611e8b565b6024825263636f646560e01b6040837f4c69624469616d6f6e644375743a204e657720666163657420686173206e6f2060208201520152565b9190918054831015612086575f52601c60205f208360031c019260021b1690565b90815491600160401b831015610d5057826128a991600161240595018155612865565b90919063ffffffff83549160031b9260e01c831b921b1916179055565b61ffff1661ffff81146121a85760010190565b906001600160a01b0382168015612b4a573014612aee576001600160e01b0319165f8181525f516020612c035f395f51905f52602052604090205460a01c61ffff169061292583612360565b545f198101929083116121a857828103612a75575b5061294483612360565b80548015612a1c575f19019061295a8282612865565b63ffffffff82549160031b1b19169055555f525f516020612c035f395f51905f526020525f60408120551561298c5750565b5f516020612c835f395f51905f52545f1981019081116121a85761ffff60016129b484612360565b01541690808203612a30575b50505f516020612c835f395f51905f52548015612a1c57600191612a10915f19016129ea81612056565b815490868060a01b039060031b1b191690555f516020612c835f395f51905f5255612360565b01805461ffff19169055565b634e487b7160e01b5f52603160045260245ffd5b6001612a61612a4161ffff93612056565b838060a01b0391549060031b1c16612a5c816123e187612056565b612360565b01911661ffff198254161790555f806129c0565b612ae890612a8b84612a8687612360565b612865565b90549060031b1c60e01b612aa6816128a984612a868a612360565b6001600160e01b0319165f9081525f516020612c035f395f51905f5260205260409020805461ffff60a01b191660a09290921b61ffff60a01b16919091179055565b5f61293a565b60405162461bcd60e51b815260206004820152602e60248201527f4c69624469616d6f6e644375743a2043616e27742072656d6f766520696d6d7560448201526d3a30b1363290333ab731ba34b7b760911b6064820152608490fd5b60405162461bcd60e51b815260206004820152603760248201527f4c69624469616d6f6e644375743a2043616e27742072656d6f76652066756e6360448201527f74696f6e207468617420646f65736e27742065786973740000000000000000006064820152608490fd5b3b15612bbe5750565b60405162461bcd60e51b815260206004820152908190611bd0906024830190611e2256fe4f3013c7b1e6655618f4cf0d94e4db7df74d61803838fc575c18cddf60dc3a10c8fcad8db84d3cc18b4c41d551ea0ee66dd599cde068d998e57d5e09332c131c337982b4a2f8b4593b3a06c087bfa2b1b0164e42e863750f9d819b4580cc64094f3013c7b1e6655618f4cf0d94e4db7df74d61803838fc575c18cddf60dc3a0c4f3013c7b1e6655618f4cf0d94e4db7df74d61803838fc575c18cddf60dc3a0fc8fcad8db84d3cc18b4c41d551ea0ee66dd599cde068d998e57d5e09332c131e4f3013c7b1e6655618f4cf0d94e4db7df74d61803838fc575c18cddf60dc3a0e4f3013c7b1e6655618f4cf0d94e4db7df74d61803838fc575c18cddf60dc3a124f3013c7b1e6655618f4cf0d94e4db7df74d61803838fc575c18cddf60dc3a0da2646970667358221220500a44b82b0f50ce062728e5bde5461ca0fe0f2a8803f5cbb2fa78c4fb0eaa8764736f6c634300081c0033","linkReferences":{}},"methodIdentifiers":{"MAX_OWNER_COUNT()":"d74f8edd","confirmTransaction(uint256,bool)":"c6a725d8","diamondCut((address,uint8,bytes4[])[],address,bytes)":"1f931c1c","executeDiamondCutProposal(uint256)":"5fc7ba57","executeTransaction(uint256)":"ee22610b","getDiamondCutProposal(uint256)":"314f0df7","getErc20Address()":"c2312836","getSigners(uint256)":"dfceceae","getTransactionCount(bool,bool)":"54741525","initializeMultisig(address,uint256)":"472d3b1d","submitDiamondCutProposal((address,uint8,bytes4[])[],address,bytes,string)":"9dda361b","submitTransaction(address,uint256,bytes)":"c6427474"},"id":2}