{"abi":[{"type":"function","name":"MAX_OWNER_COUNT","inputs":[],"outputs":[{"name":"","type":"uint256","internalType":"uint256"}],"stateMutability":"view"},{"type":"function","name":"confirmTransaction","inputs":[{"name":"transactionId","type":"uint256","internalType":"uint256"},{"name":"executeIfReady","type":"bool","internalType":"bool"}],"outputs":[],"stateMutability":"nonpayable"},{"type":"function","name":"diamondCut","inputs":[{"name":"_diamondCut","type":"tuple[]","internalType":"struct IDiamondCut.FacetCut[]","components":[{"name":"facetAddress","type":"address","internalType":"address"},{"name":"action","type":"uint8","internalType":"enum IDiamondCut.FacetCutAction"},{"name":"functionSelectors","type":"bytes4[]","internalType":"bytes4[]"}]},{"name":"_init","type":"address","internalType":"address"},{"name":"_calldata","type":"bytes","internalType":"bytes"}],"outputs":[],"stateMutability":"nonpayable"},{"type":"function","name":"executeDiamondCutProposal","inputs":[{"name":"proposalId","type":"uint256","internalType":"uint256"}],"outputs":[],"stateMutability":"nonpayable"},{"type":"function","name":"executeTransaction","inputs":[{"name":"transactionId","type":"uint256","internalType":"uint256"}],"outputs":[],"stateMutability":"nonpayable"},{"type":"function","name":"getDiamondCutProposal","inputs":[{"name":"proposalId","type":"uint256","internalType":"uint256"}],"outputs":[{"name":"facetCuts","type":"tuple[]","internalType":"struct IDiamondCut.FacetCut[]","components":[{"name":"facetAddress","type":"address","internalType":"address"},{"name":"action","type":"uint8","internalType":"enum IDiamondCut.FacetCutAction"},{"name":"functionSelectors","type":"bytes4[]","internalType":"bytes4[]"}]},{"name":"init","type":"address","internalType":"address"},{"name":"initCalldata","type":"bytes","internalType":"bytes"},{"name":"label","type":"string","internalType":"string"},{"name":"executed","type":"bool","internalType":"bool"}],"stateMutability":"view"},{"type":"function","name":"getOwners","inputs":[],"outputs":[{"name":"","type":"address[]","internalType":"address[]"}],"stateMutability":"view"},{"type":"function","name":"getTransactionCount","inputs":[{"name":"pending","type":"bool","internalType":"bool"},{"name":"executed","type":"bool","internalType":"bool"}],"outputs":[{"name":"count","type":"uint256","internalType":"uint256"}],"stateMutability":"view"},{"type":"function","name":"initializeMultisig","inputs":[{"name":"_owners","type":"address[]","internalType":"address[]"},{"name":"_required","type":"uint256","internalType":"uint256"}],"outputs":[],"stateMutability":"nonpayable"},{"type":"function","name":"submitDiamondCutProposal","inputs":[{"name":"_facetCuts","type":"tuple[]","internalType":"struct IDiamondCut.FacetCut[]","components":[{"name":"facetAddress","type":"address","internalType":"address"},{"name":"action","type":"uint8","internalType":"enum IDiamondCut.FacetCutAction"},{"name":"functionSelectors","type":"bytes4[]","internalType":"bytes4[]"}]},{"name":"_init","type":"address","internalType":"address"},{"name":"_initCalldata","type":"bytes","internalType":"bytes"},{"name":"_label","type":"string","internalType":"string"}],"outputs":[{"name":"proposalId","type":"uint256","internalType":"uint256"}],"stateMutability":"nonpayable"},{"type":"function","name":"submitTransaction","inputs":[{"name":"destination","type":"address","internalType":"address"},{"name":"value","type":"uint256","internalType":"uint256"},{"name":"data","type":"bytes","internalType":"bytes"}],"outputs":[{"name":"transactionId","type":"uint256","internalType":"uint256"}],"stateMutability":"nonpayable"},{"type":"event","name":"Confirmation","inputs":[{"name":"sender","type":"address","indexed":true,"internalType":"address"},{"name":"transactionId","type":"uint256","indexed":true,"internalType":"uint256"}],"anonymous":false},{"type":"event","name":"Deposit","inputs":[{"name":"sender","type":"address","indexed":true,"internalType":"address"},{"name":"value","type":"uint256","indexed":false,"internalType":"uint256"}],"anonymous":false},{"type":"event","name":"DiamondCut","inputs":[{"name":"_diamondCut","type":"tuple[]","indexed":false,"internalType":"struct IDiamondCut.FacetCut[]","components":[{"name":"facetAddress","type":"address","internalType":"address"},{"name":"action","type":"uint8","internalType":"enum IDiamondCut.FacetCutAction"},{"name":"functionSelectors","type":"bytes4[]","internalType":"bytes4[]"}]},{"name":"_init","type":"address","indexed":false,"internalType":"address"},{"name":"_calldata","type":"bytes","indexed":false,"internalType":"bytes"}],"anonymous":false},{"type":"event","name":"DiamondCutProposalExecuted","inputs":[{"name":"proposalId","type":"uint256","indexed":true,"internalType":"uint256"},{"name":"label","type":"string","indexed":false,"internalType":"string"}],"anonymous":false},{"type":"event","name":"DiamondCutProposalSubmitted","inputs":[{"name":"proposalId","type":"uint256","indexed":true,"internalType":"uint256"},{"name":"label","type":"string","indexed":false,"internalType":"string"}],"anonymous":false},{"type":"event","name":"Execution","inputs":[{"name":"transactionId","type":"uint256","indexed":true,"internalType":"uint256"}],"anonymous":false},{"type":"event","name":"ExecutionFailure","inputs":[{"name":"transactionId","type":"uint256","indexed":true,"internalType":"uint256"}],"anonymous":false},{"type":"event","name":"OwnerAddition","inputs":[{"name":"owner","type":"address","indexed":true,"internalType":"address"}],"anonymous":false},{"type":"event","name":"OwnerRemoval","inputs":[{"name":"owner","type":"address","indexed":true,"internalType":"address"}],"anonymous":false},{"type":"event","name":"RequirementChange","inputs":[{"name":"required","type":"uint256","indexed":false,"internalType":"uint256"}],"anonymous":false},{"type":"event","name":"Revocation","inputs":[{"name":"sender","type":"address","indexed":true,"internalType":"address"},{"name":"transactionId","type":"uint256","indexed":true,"internalType":"uint256"}],"anonymous":false},{"type":"event","name":"Submission","inputs":[{"name":"transactionId","type":"uint256","indexed":true,"internalType":"uint256"}],"anonymous":false},{"type":"error","name":"ErrorTxnotConfirmed","inputs":[{"name":"transactionId","type":"uint256","internalType":"uint256"}]}],"bytecode":{"object":"0x60808060405234601557612bd9908161001a8239f35b5f80fdfe6080806040526004361015610012575f80fd5b5f3560e01c9081631f931c1c146113fc57508063314f0df7146110f057806354741525146110225780635fc7ba5714610ebb5780639dda361b146108ad578063a0e67e2b146107ea578063c642747414610599578063c6a725d814610458578063cd8ba8571461017e578063d74f8edd146101635763ee22610b14610095575f80fd5b3461015f57602036600319011261015f576004356100be60ff6100b733612162565b541661219a565b5f8181525f516020612b245f395f51905f5260205260409020546100ec906001600160a01b03161515612344565b805f525f516020612b245f395f51905f5260205260ff600360405f2001541661011a57610118906124ff565b005b60405162461bcd60e51b815260206004820152601f60248201527f4d756c746973696746616365743a20416c7265616479206578656375746564006044820152606490fd5b5f80fd5b3461015f575f36600319011261015f57602060405160328152f35b3461015f57604036600319011261015f576004356001600160401b03811161015f573660238201121561015f5780600401356101b981611e23565b916101c76040519384611e02565b818352602083016024819360051b8301019136831161015f57602401905b82821061044057505050602435825160328111159081610435575b8161042b575b81610421575b50156103d1575f5b83518110156102d25760ff61023b6001600160a01b0361023484886120f4565b5116612162565b541615806102b6575b15610271576001906102616001600160a01b0361023483886120f4565b805460ff19168317905501610214565b60405162461bcd60e51b815260206004820152601c60248201527f4d756c746973696746616365743a20496e76616c6964206f776e6572000000006044820152606490fd5b506001600160a01b036102c982866120f4565b51161515610244565b509151906001600160401b0382116103bd57600160401b82116103bd575f516020612b445f395f51905f5254825f516020612b445f395f51905f5255808310610377575b505f516020612b445f395f51905f525f5260205f205f5b83811061035a577f4f3013c7b1e6655618f4cf0d94e4db7df74d61803838fc575c18cddf60dc3a10859055005b82516001600160a01b03168183015560209092019160010161032d565b5f516020612b445f395f51905f525f526103b7907fa9ce5428898a4402ca9aecfcff120da40e02f7b6f7ca29d69fc74506074c2c49908101908401612226565b83610316565b634e487b7160e01b5f52604160045260245ffd5b60405162461bcd60e51b815260206004820152602260248201527f4d756c746973696746616365743a20496e76616c696420726571756972656d656044820152611b9d60f21b6064820152608490fd5b905015158461020c565b8215159150610206565b808311159150610200565b6020809161044d84611cc6565b8152019101906101e5565b3461015f57604036600319011261015f57600435610474611dbd565b61048260ff6100b733612162565b5f8281525f516020612b245f395f51905f5260205260409020546104b0906001600160a01b03161515612344565b5f8281525f516020612b845f395f51905f526020908152604080832033845290915290205460ff16610555575f8281525f516020612b845f395f51905f52602090815260408083203380855292528220805460ff1916600117905583917f4a504a94899432a9846e1aa406dceb1bcfd538bb839071d49d1e5e23f5be30ef9080a380610546575b61053d57005b610118906124ff565b50610550816123f8565b610537565b606460405162461bcd60e51b815260206004820152602060248201527f4d756c746973696746616365743a20416c726561647920636f6e6669726d65646044820152fd5b3461015f57606036600319011261015f576004356001600160a01b0381169081900361015f576044356001600160401b03811161015f576105de903690600401611fa6565b90801561079a576106839060035f516020612b045f395f51905f5254936040519261060884611de7565b8352602435602080850191825260408086019384525f606087018181528982525f516020612b245f395f51905f5290935220945185546001600160a01b0319166001600160a01b039190911617855590516001850155905161066d9060028501612281565b51151591019060ff801983541691151516179055565b61069a5f516020612b045f395f51905f5254612108565b5f516020612b045f395f51905f5255807fc0ba8fe4b176c1714197d43b9cc6bcf797a4a7461c5fe8d0ef6e184ae7601e515f80a26106dc60ff6100b733612162565b5f8181525f516020612b245f395f51905f52602052604090205461070a906001600160a01b03161515612344565b5f8181525f516020612b845f395f51905f526020908152604080832033845290915290205460ff1661055557806020915f525f516020612b845f395f51905f52825260405f2060018060a01b0333165f52825260405f20600160ff1982541617905580337f4a504a94899432a9846e1aa406dceb1bcfd538bb839071d49d1e5e23f5be30ef5f80a3604051908152f35b60405162461bcd60e51b815260206004820152602260248201527f4d756c746973696746616365743a20496e76616c69642064657374696e61746960448201526137b760f11b6064820152608490fd5b3461015f575f36600319011261015f576040518060205f516020612b445f395f51905f5254928381520180925f516020612b445f395f51905f525f5260205f20905f5b81811061088e5750505081610843910382611e02565b604051918291602083019060208452518091526040830191905f5b81811061086c575050500390f35b82516001600160a01b031684528594506020938401939092019160010161085e565b82546001600160a01b031684526020909301926001928301920161082d565b3461015f57608036600319011261015f576004356001600160401b03811161015f573660238201121561015f576108ee903690602481600401359101611e3a565b6108f6611cb0565b6044356001600160401b03811161015f57610915903690600401611fa6565b6064356001600160401b03811161015f573660238201121561015f57610945903690602481600401359101611f70565b91604051916307e4c70760e21b60208401526109788361096a838589602485016121f2565b03601f198101855284611e02565b301561079a57610a055f516020612b045f395f51905f5254936003604051916109a083611de7565b3083525f60208085018281526040808701948552606087018481528b85525f516020612b245f395f51905f52909352909220945185546001600160a01b0319166001600160a01b039190911617855590516001850155905161066d9060028501612281565b610a1c5f516020612b045f395f51905f5254612108565b5f516020612b045f395f51905f5255827fc0ba8fe4b176c1714197d43b9cc6bcf797a4a7461c5fe8d0ef6e184ae7601e515f80a2610a5e60ff6100b733612162565b5f8381525f516020612b245f395f51905f526020526040902054610a8c906001600160a01b03161515612344565b5f8381525f516020612b845f395f51905f526020908152604080832033845290915290205460ff16610555575f8381525f516020612b845f395f51905f52602090815260408083203380855292528220805460ff1916600117905584917f4a504a94899432a9846e1aa406dceb1bcfd538bb839071d49d1e5e23f5be30ef9080a360405191610b1a83611de7565b6001600160a01b039081168352602080840192835260408085018781525f606087018181528882527f337982b4a2f8b4593b3a06c087bfa2b1b0164e42e863750f9d819b4580cc640c90945291909120945185546001600160a01b03191693169290921784559151610b8f9060018501612281565b51805160028401916001600160401b0382116103bd57610bb982610bb3855461203b565b8561223c565b602090601f8311600114610e515782610c0996959360039593610bf1935f92610e46575b50508160011b915f199060031b1c19161790565b905551151591019060ff801983541691151516179055565b5f5b8351811015610e00575f8281525f516020612ae45f395f51905f52602052604090206001600160a01b03610c3f83876120f4565b515116815491600160401b8310156103bd5782610c64916001610c8895018155612008565b81546001600160a01b0393841660039290921b91821b9390911b1916919091179055565b815f527f337982b4a2f8b4593b3a06c087bfa2b1b0164e42e863750f9d819b4580cc640a60205260405f20610cc96020610cc284886120f4565b51016123a2565b906003821015610dec578054600160401b8110156103bd57610cf09160018201815561201d565b60ff80839493549260031b9316831b921b1916179055815f527f337982b4a2f8b4593b3a06c087bfa2b1b0164e42e863750f9d819b4580cc640b60205260405f20906040610d3e82876120f4565b510151916040519283604081019160208083015280518093526020606083019101925f905b808210610dc5575050610d7f925003601f198101855284611e02565b8054600160401b8110156103bd57610d9c91600182018155612008565b610db257600192610dac91612281565b01610c0b565b634e487b7160e01b5f525f60045260245ffd5b84516001600160e01b03191683526020948501948894509092019160019190910190610d63565b634e487b7160e01b5f52602160045260245ffd5b50807fbb531b035043a23626af8c80867edaf5d99143dacafb0392e11353ff604e5570610e3b60209460405191829187835287830190611d99565b0390a2604051908152f35b015190508b80610bdd565b90601f19831691845f52815f20925f5b818110610ea35750926001928592610c099998966003989610610e8c575b505050811b01905561066d565b01515f1983881b60f8161c191690558a8080610e7f565b92936020600181928786015181550195019301610e61565b3461015f57602036600319011261015f57600435610edd60ff6100b733612162565b805f527f337982b4a2f8b4593b3a06c087bfa2b1b0164e42e863750f9d819b4580cc640c60205260405f206003810160ff815416610fca57610f2360ff6100b733612162565b5f8381525f516020612b245f395f51905f526020526040902054610f51906001600160a01b03161515612344565b825f525f516020612b245f395f51905f5260205260ff600360405f2001541661011a577f44e876d367cb04b52a0ddf76075551fe774e6f61547a4405c83b6b1654f7ec4691610fc591610fa3856124ff565b600160ff19825416179055604051918291602083526002602084019101612073565b0390a2005b60405162461bcd60e51b815260206004820152602a60248201527f4469616d6f6e6443757446616365743a2050726f706f73616c20616c726561646044820152691e48195e1958dd5d195960b21b6064820152608490fd5b3461015f57604036600319011261015f57600435801515810361015f57611047611dbd565b5f915f915f516020612b045f395f51905f5254925b83811061106e57602085604051908152f35b82806110ca575b801561109d575b611089575b60010161105c565b93611095600191612108565b949050611081565b5081801561107c5750805f525f516020612b245f395f51905f5260205260ff600360405f2001541661107c565b50805f525f516020612b245f395f51905f5260205260ff600360405f2001541615611075565b3461015f57602036600319011261015f57600435805f527f337982b4a2f8b4593b3a06c087bfa2b1b0164e42e863750f9d819b4580cc640c60205260405f20815f525f516020612ae45f395f51905f5260205260405f20549161115283611e23565b926111606040519485611e02565b80845261116f601f1991611e23565b015f5b8181106113d2575050905f915b805f525f516020612ae45f395f51905f5260205260405f205483101561133b57805f525f516020612ae45f395f51905f526020526111c08360405f20612008565b60018060a01b0391549060031b1c1692815f527f337982b4a2f8b4593b3a06c087bfa2b1b0164e42e863750f9d819b4580cc640a60205260ff6112068260405f2061201d565b90549060031b1c16936003851015610dec5761126094835f527f337982b4a2f8b4593b3a06c087bfa2b1b0164e42e863750f9d819b4580cc640b6020526112676112538460405f20612008565b5060405197888092612073565b0387611e02565b855186019560208181890198031261015f576020810151906001600160401b03821161015f57019086603f8301121561015f576020820151966112a988611e23565b926112b76040519485611e02565b8884526020808086019a60051b8301010191821161015f57604001975b81891061131a575050600194959650604051926112f084611dcc565b83526020830152604082015261130682876120f4565b5261131181866120f4565b5001919061117f565b88516001600160e01b03198116810361015f578152602098890198016112d4565b6113a584836113c660026113b860018060a01b0384541660ff600386015416946113916040519161137a836113738160018501612073565b0384611e02565b61138a6040518097819301612073565b0385611e02565b60405197889760a0895260a0890190611cda565b9160208801528682036040880152611d99565b908482036060860152611d99565b90151560808301520390f35b6020906040516113e181611dcc565b5f81525f838201526060604082015282828801015201611172565b3461015f57606036600319011261015f576004356001600160401b03811161015f573660238201121561015f5780600401356001600160401b03811161015f573660248260051b8401011161015f57611453611cb0565b91604435916001600160401b03831161015f573660238401121561015f578260040135946001600160401b03861161015f57366024878601011161015f577fc8fcad8db84d3cc18b4c41d551ea0ee66dd599cde068d998e57d5e09332c1320546001600160a01b03163303611c635750916114d76114e29286946024369201611e3a565b926024369201611f70565b915f915b8051831015611a36576114fe6020610cc285846120f4565b6003811015610dec57806116e15750906001600160a01b0361152084846120f4565b51511691604061153085836120f4565b510151906115408251151561263d565b61154b84151561269d565b61ffff6115578561212a565b5416908115611694575b6001600160a01b03851696935f925b845184101561167e576001600160e01b031961158c85876120f4565b51165f8181525f516020612ac45f395f51905f5260205260409020546001600160a01b031661161b57600191816115ce611613936115c98c61212a565b612767565b5f9081525f516020612ac45f395f51905f5260205260409020805461ffff60a01b198d166001600160b01b03199091161760a083901b61ffff60a01b161790556127a7565b930192611570565b60405162461bcd60e51b815260206004820152603560248201527f4c69624469616d6f6e644375743a2043616e2774206164642066756e6374696f6044820152746e207468617420616c72656164792065786973747360581b6064820152608490fd5b5095925095505060019192505b019190926114e6565b6116a561169f6126fe565b86612a96565b61ffff5f516020612b645f395f51905f52541661ffff60016116c68861212a565b01911661ffff198254161790556116dc856123af565b611561565b600181036118e25750906001600160a01b036116fd84846120f4565b51511691604061170d85836120f4565b5101519061171d8251151561263d565b61172884151561269d565b61ffff6117348561212a565b541690811561189b575b6001600160a01b03851696935f925b845184101561188a576001600160e01b031961176985876120f4565b511690815f525f516020612ac45f395f51905f5260205260018060a01b0360405f2054169088821461181f57826117a5600194611817946127ba565b5f8181525f516020612ac45f395f51905f5260205260409020805461ffff60a01b191660a084901b61ffff60a01b161790556117e4816115c98c61212a565b5f525f516020612ac45f395f51905f5260205260405f208b6bffffffffffffffffffffffff60a01b8254161790556127a7565b93019261174d565b60405162461bcd60e51b815260206004820152603860248201527f4c69624469616d6f6e644375743a2043616e2774207265706c6163652066756e60448201527f6374696f6e20776974682073616d652066756e6374696f6e00000000000000006064820152608490fd5b50959250955050600191925061168b565b6118a661169f6126fe565b61ffff5f516020612b645f395f51905f52541661ffff60016118c78861212a565b01911661ffff198254161790556118dd856123af565b61173e565b6002036119e1576001600160a01b036118fb84836120f4565b51511691604061190b85846120f4565b5101519261191b8451151561263d565b61197d575f5b83518110156119705760019061196a6001600160e01b031961194383886120f4565b5116805f525f516020612ac45f395f51905f52602052838060a01b0360405f2054166127ba565b01611921565b509260019194925061168b565b60405162461bcd60e51b815260206004820152603660248201527f4c69624469616d6f6e644375743a2052656d6f76652066616365742061646472604482015275657373206d757374206265206164647265737328302960501b6064820152608490fd5b60405162461bcd60e51b815260206004820152602760248201527f4c69624469616d6f6e644375743a20496e636f727265637420466163657443756044820152663a20b1ba34b7b760c91b6064820152608490fd5b907f8faa70878671ccd212d20771b795c50af8fd3ff6cf27f4bde57e5d4de0aeb673818593611a6b85604051938493846121f2565b0390a16001600160a01b03811680611af157505051611a8657005b60405162461bcd60e51b815260206004820152603c60248201527f4c69624469616d6f6e644375743a205f696e697420697320616464726573732860448201527f3029206275745f63616c6c64617461206973206e6f7420656d707479000000006064820152608490fd5b9091805115611bf8575f9283923003611ba1575b602082519201905af4611b166124d0565b9015611b1e57005b805115611b4d5760405162461bcd60e51b815260206004820152908190611b49906024830190611d99565b0390fd5b60405162461bcd60e51b815260206004820152602660248201527f4c69624469616d6f6e644375743a205f696e69742066756e6374696f6e2072656044820152651d995c9d195960d21b6064820152608490fd5b611bf3604051611bb2606082611e02565b602881527f4c69624469616d6f6e644375743a205f696e6974206164647265737320686173602082015267206e6f20636f646560c01b604082015282612a96565b611b05565b60405162461bcd60e51b815260206004820152603d60248201527f4c69624469616d6f6e644375743a205f63616c6c6461746120697320656d707460448201527f7920627574205f696e6974206973206e6f7420616464726573732830290000006064820152608490fd5b62461bcd60e51b815260206004820152602260248201527f4c69624469616d6f6e643a204d75737420626520636f6e7472616374206f776e60448201526132b960f11b6064820152608490fd5b602435906001600160a01b038216820361015f57565b35906001600160a01b038216820361015f57565b9080602083519182815201916020808360051b8301019401925f915b838310611d0557505050505090565b9091929394601f198282030183528551606082019060018060a01b0381511683526020810151906003821015610dec57604060809160209384870152015193606060408201528451809452019201905f905b808210611d765750505060208060019297019301930191939290611cf6565b82516001600160e01b031916845260209384019390920191600190910190611d57565b805180835260209291819084018484015e5f828201840152601f01601f1916010190565b60243590811515820361015f57565b606081019081106001600160401b038211176103bd57604052565b608081019081106001600160401b038211176103bd57604052565b90601f801991011681019081106001600160401b038211176103bd57604052565b6001600160401b0381116103bd5760051b60200190565b92919092611e4784611e23565b93611e556040519586611e02565b602085828152019060051b82019183831161015f5780915b838310611e7b575050505050565b82356001600160401b03811161015f57820160608187031261015f5760405190611ea482611dcc565b611ead81611cc6565b82526020810135600381101561015f5760208301526040810135906001600160401b03821161015f570186601f8201121561015f578035611eed81611e23565b91611efb6040519384611e02565b81835260208084019260051b8201019089821161015f57602001915b818310611f34575050506040820152815260209283019201611e6d565b82356001600160e01b03198116810361015f57815260209283019201611f17565b6001600160401b0381116103bd57601f01601f191660200190565b929192611f7c82611f55565b91611f8a6040519384611e02565b82948184528183011161015f578281602093845f960137010152565b9080601f8301121561015f57816020611fc193359101611f70565b90565b5f516020612b645f395f51905f5254811015611ff4575f516020612b645f395f51905f525f5260205f2001905f90565b634e487b7160e01b5f52603260045260245ffd5b8054821015611ff4575f5260205f2001905f90565b9190918054831015611ff4575f52601f60205f208360051c01921690565b90600182811c92168015612069575b602083101461205557565b634e487b7160e01b5f52602260045260245ffd5b91607f169161204a565b5f92918154916120828361203b565b80835292600181169081156120d7575060011461209e57505050565b5f9081526020812093945091925b8383106120bd575060209250010190565b6001816020929493945483858701015201910191906120ac565b915050602093945060ff929192191683830152151560051b010190565b8051821015611ff45760209160051b010190565b5f1981146121165760010190565b634e487b7160e01b5f52601160045260245ffd5b6001600160a01b03165f9081527fc8fcad8db84d3cc18b4c41d551ea0ee66dd599cde068d998e57d5e09332c131d6020526040902090565b6001600160a01b03165f9081527f4f3013c7b1e6655618f4cf0d94e4db7df74d61803838fc575c18cddf60dc3a0e6020526040902090565b156121a157565b60405162461bcd60e51b815260206004820152602360248201527f4d756c746973696746616365743a204f776e657220646f6573206e6f742065786044820152621a5cdd60ea1b6064820152608490fd5b612208611fc19492606083526060830190611cda565b6001600160a01b039093166020820152808303604090910152611d99565b818110612231575050565b5f8155600101612226565b9190601f811161224b57505050565b612275925f5260205f20906020601f840160051c83019310612277575b601f0160051c0190612226565b565b9091508190612268565b91909182516001600160401b0381116103bd576122a8816122a2845461203b565b8461223c565b6020601f82116001146122e65781906122d79394955f926122db5750508160011b915f199060031b1c19161790565b9055565b015190505f80610bdd565b601f19821690835f52805f20915f5b81811061232c57509583600195969710612314575b505050811b019055565b01515f1960f88460031b161c191690555f808061230a565b9192602060018192868b0151815501940192016122f5565b1561234b57565b60405162461bcd60e51b815260206004820152602960248201527f4d756c746973696746616365743a205472616e73616374696f6e20646f6573206044820152681b9bdd08195e1a5cdd60ba1b6064820152608490fd5b516003811015610dec5790565b5f516020612b645f395f51905f525490600160401b8210156103bd57610c6482600161227594015f516020612b645f395f51905f52555f516020612b645f395f51905f52612008565b5f516020612b445f395f51905f52547f4f3013c7b1e6655618f4cf0d94e4db7df74d61803838fc575c18cddf60dc3a105490915f908390825b858110612442575050505050505f90565b815f525f516020612b845f395f51905f5260205260405f2083821015611ff4577fa9ce5428898a4402ca9aecfcff120da40e02f7b6f7ca29d69fc74506074c2c498201546001600160a01b03165f908152602091909152604090205460ff166124c0575b8484146124b557600101612431565b505050505050600190565b926124ca90612108565b926124a6565b3d156124fa573d906124e182611f55565b916124ef6040519384611e02565b82523d5f602084013e565b606090565b612508816123f8565b1561262b57805f525f516020612b245f395f51905f5260205260405f206003810190600160ff1983541617825560018060a01b038154169060026001820154910190604051915f9080549061255c8261203b565b916001811690811561261457506001146125e2575b5050915f939181859403925af16125866124d0565b50156125b357507f33e13ecb54c3076d8e8bb8c2881800a4d972b792045ffae98fdf46df365fed755f80a2565b907f526441bb6c1aba3c9a4a6ca1d6545da9c2333c8c48343ef398eb858d72b792365f80a2805460ff19169055565b9091505f5260205f205f905b82821061260057505082018183612571565b6001816020925484880152019101906125ee565b60ff19168652505080151502830190508183612571565b63caca7d3160e01b5f5260045260245ffd5b1561264457565b60405162461bcd60e51b815260206004820152602b60248201527f4c69624469616d6f6e644375743a204e6f2073656c6563746f727320696e206660448201526a1858d95d081d1bc818dd5d60aa1b6064820152608490fd5b156126a457565b60405162461bcd60e51b815260206004820152602c60248201527f4c69624469616d6f6e644375743a204164642066616365742063616e2774206260448201526b65206164647265737328302960a01b6064820152608490fd5b6040519061270d606083611e02565b6024825263636f646560e01b6040837f4c69624469616d6f6e644375743a204e657720666163657420686173206e6f2060208201520152565b9190918054831015611ff4575f52601c60205f208360031c019260021b1690565b90815491600160401b8310156103bd578261278a91600161227595018155612746565b90919063ffffffff83549160031b9260e01c831b921b1916179055565b61ffff1661ffff81146121165760010190565b906001600160a01b0382168015612a2b5730146129cf576001600160e01b0319165f8181525f516020612ac45f395f51905f52602052604090205460a01c61ffff16906128068361212a565b545f1981019290831161211657828103612956575b506128258361212a565b805480156128fd575f19019061283b8282612746565b63ffffffff82549160031b1b19169055555f525f516020612ac45f395f51905f526020525f60408120551561286d5750565b5f516020612b645f395f51905f52545f1981019081116121165761ffff60016128958461212a565b01541690808203612911575b50505f516020612b645f395f51905f525480156128fd576001916128f1915f19016128cb81611fc4565b815490868060a01b039060031b1b191690555f516020612b645f395f51905f525561212a565b01805461ffff19169055565b634e487b7160e01b5f52603160045260245ffd5b600161294261292261ffff93611fc4565b838060a01b0391549060031b1c1661293d81610c6487611fc4565b61212a565b01911661ffff198254161790555f806128a1565b6129c99061296c846129678761212a565b612746565b90549060031b1c60e01b6129878161278a846129678a61212a565b6001600160e01b0319165f9081525f516020612ac45f395f51905f5260205260409020805461ffff60a01b191660a09290921b61ffff60a01b16919091179055565b5f61281b565b60405162461bcd60e51b815260206004820152602e60248201527f4c69624469616d6f6e644375743a2043616e27742072656d6f766520696d6d7560448201526d3a30b1363290333ab731ba34b7b760911b6064820152608490fd5b60405162461bcd60e51b815260206004820152603760248201527f4c69624469616d6f6e644375743a2043616e27742072656d6f76652066756e6360448201527f74696f6e207468617420646f65736e27742065786973740000000000000000006064820152608490fd5b3b15612a9f5750565b60405162461bcd60e51b815260206004820152908190611b49906024830190611d9956fec8fcad8db84d3cc18b4c41d551ea0ee66dd599cde068d998e57d5e09332c131c337982b4a2f8b4593b3a06c087bfa2b1b0164e42e863750f9d819b4580cc64094f3013c7b1e6655618f4cf0d94e4db7df74d61803838fc575c18cddf60dc3a114f3013c7b1e6655618f4cf0d94e4db7df74d61803838fc575c18cddf60dc3a0c4f3013c7b1e6655618f4cf0d94e4db7df74d61803838fc575c18cddf60dc3a0fc8fcad8db84d3cc18b4c41d551ea0ee66dd599cde068d998e57d5e09332c131e4f3013c7b1e6655618f4cf0d94e4db7df74d61803838fc575c18cddf60dc3a0da26469706673582212208f50f60d661a995bee484d44947241960967a1a6e0bb66c4b26323413e17d3c464736f6c634300081c0033","linkReferences":{}},"methodIdentifiers":{"MAX_OWNER_COUNT()":"d74f8edd","confirmTransaction(uint256,bool)":"c6a725d8","diamondCut((address,uint8,bytes4[])[],address,bytes)":"1f931c1c","executeDiamondCutProposal(uint256)":"5fc7ba57","executeTransaction(uint256)":"ee22610b","getDiamondCutProposal(uint256)":"314f0df7","getOwners()":"a0e67e2b","getTransactionCount(bool,bool)":"54741525","initializeMultisig(address[],uint256)":"cd8ba857","submitDiamondCutProposal((address,uint8,bytes4[])[],address,bytes,string)":"9dda361b","submitTransaction(address,uint256,bytes)":"c6427474"},"id":1}