{"abi":[{"type":"function","name":"MAX_OWNER_COUNT","inputs":[],"outputs":[{"name":"","type":"uint256","internalType":"uint256"}],"stateMutability":"view"},{"type":"function","name":"confirmTransaction","inputs":[{"name":"transactionId","type":"uint256","internalType":"uint256"},{"name":"executeIfReady","type":"bool","internalType":"bool"}],"outputs":[],"stateMutability":"nonpayable"},{"type":"function","name":"diamondCut","inputs":[{"name":"_diamondCut","type":"tuple[]","internalType":"struct IDiamondCut.FacetCut[]","components":[{"name":"facetAddress","type":"address","internalType":"address"},{"name":"action","type":"uint8","internalType":"enum IDiamondCut.FacetCutAction"},{"name":"functionSelectors","type":"bytes4[]","internalType":"bytes4[]"}]},{"name":"_init","type":"address","internalType":"address"},{"name":"_calldata","type":"bytes","internalType":"bytes"}],"outputs":[],"stateMutability":"nonpayable"},{"type":"function","name":"executeDiamondCutProposal","inputs":[{"name":"proposalId","type":"uint256","internalType":"uint256"}],"outputs":[],"stateMutability":"nonpayable"},{"type":"function","name":"executeTransaction","inputs":[{"name":"transactionId","type":"uint256","internalType":"uint256"}],"outputs":[],"stateMutability":"nonpayable"},{"type":"function","name":"getDiamondCutProposal","inputs":[{"name":"proposalId","type":"uint256","internalType":"uint256"}],"outputs":[{"name":"facetCuts","type":"tuple[]","internalType":"struct IDiamondCut.FacetCut[]","components":[{"name":"facetAddress","type":"address","internalType":"address"},{"name":"action","type":"uint8","internalType":"enum IDiamondCut.FacetCutAction"},{"name":"functionSelectors","type":"bytes4[]","internalType":"bytes4[]"}]},{"name":"init","type":"address","internalType":"address"},{"name":"initCalldata","type":"bytes","internalType":"bytes"},{"name":"label","type":"string","internalType":"string"},{"name":"executed","type":"bool","internalType":"bool"}],"stateMutability":"view"},{"type":"function","name":"getSigners","inputs":[{"name":"transactionId","type":"uint256","internalType":"uint256"}],"outputs":[{"name":"","type":"address[]","internalType":"address[]"}],"stateMutability":"view"},{"type":"function","name":"getTransactionCount","inputs":[{"name":"pending","type":"bool","internalType":"bool"},{"name":"executed","type":"bool","internalType":"bool"}],"outputs":[{"name":"count","type":"uint256","internalType":"uint256"}],"stateMutability":"view"},{"type":"function","name":"initializeMultisig","inputs":[{"name":"erc20Address","type":"address","internalType":"address"},{"name":"_required","type":"uint256","internalType":"uint256"}],"outputs":[],"stateMutability":"nonpayable"},{"type":"function","name":"submitDiamondCutProposal","inputs":[{"name":"_facetCuts","type":"tuple[]","internalType":"struct IDiamondCut.FacetCut[]","components":[{"name":"facetAddress","type":"address","internalType":"address"},{"name":"action","type":"uint8","internalType":"enum IDiamondCut.FacetCutAction"},{"name":"functionSelectors","type":"bytes4[]","internalType":"bytes4[]"}]},{"name":"_init","type":"address","internalType":"address"},{"name":"_initCalldata","type":"bytes","internalType":"bytes"},{"name":"_label","type":"string","internalType":"string"}],"outputs":[{"name":"proposalId","type":"uint256","internalType":"uint256"}],"stateMutability":"nonpayable"},{"type":"function","name":"submitTransaction","inputs":[{"name":"destination","type":"address","internalType":"address"},{"name":"value","type":"uint256","internalType":"uint256"},{"name":"data","type":"bytes","internalType":"bytes"}],"outputs":[{"name":"transactionId","type":"uint256","internalType":"uint256"}],"stateMutability":"nonpayable"},{"type":"event","name":"Confirmation","inputs":[{"name":"sender","type":"address","indexed":true,"internalType":"address"},{"name":"transactionId","type":"uint256","indexed":true,"internalType":"uint256"}],"anonymous":false},{"type":"event","name":"Deposit","inputs":[{"name":"sender","type":"address","indexed":true,"internalType":"address"},{"name":"value","type":"uint256","indexed":false,"internalType":"uint256"}],"anonymous":false},{"type":"event","name":"DiamondCut","inputs":[{"name":"_diamondCut","type":"tuple[]","indexed":false,"internalType":"struct IDiamondCut.FacetCut[]","components":[{"name":"facetAddress","type":"address","internalType":"address"},{"name":"action","type":"uint8","internalType":"enum IDiamondCut.FacetCutAction"},{"name":"functionSelectors","type":"bytes4[]","internalType":"bytes4[]"}]},{"name":"_init","type":"address","indexed":false,"internalType":"address"},{"name":"_calldata","type":"bytes","indexed":false,"internalType":"bytes"}],"anonymous":false},{"type":"event","name":"DiamondCutProposalExecuted","inputs":[{"name":"proposalId","type":"uint256","indexed":true,"internalType":"uint256"},{"name":"label","type":"string","indexed":false,"internalType":"string"}],"anonymous":false},{"type":"event","name":"DiamondCutProposalSubmitted","inputs":[{"name":"proposalId","type":"uint256","indexed":true,"internalType":"uint256"},{"name":"label","type":"string","indexed":false,"internalType":"string"}],"anonymous":false},{"type":"event","name":"Execution","inputs":[{"name":"transactionId","type":"uint256","indexed":true,"internalType":"uint256"}],"anonymous":false},{"type":"event","name":"ExecutionFailure","inputs":[{"name":"transactionId","type":"uint256","indexed":true,"internalType":"uint256"}],"anonymous":false},{"type":"event","name":"OwnerAddition","inputs":[{"name":"owner","type":"address","indexed":true,"internalType":"address"}],"anonymous":false},{"type":"event","name":"OwnerRemoval","inputs":[{"name":"owner","type":"address","indexed":true,"internalType":"address"}],"anonymous":false},{"type":"event","name":"RequirementChange","inputs":[{"name":"required","type":"uint256","indexed":false,"internalType":"uint256"}],"anonymous":false},{"type":"event","name":"Revocation","inputs":[{"name":"sender","type":"address","indexed":true,"internalType":"address"},{"name":"transactionId","type":"uint256","indexed":true,"internalType":"uint256"}],"anonymous":false},{"type":"event","name":"Submission","inputs":[{"name":"transactionId","type":"uint256","indexed":true,"internalType":"uint256"}],"anonymous":false},{"type":"error","name":"ErrorTxnotConfirmed","inputs":[{"name":"transactionId","type":"uint256","internalType":"uint256"}]}],"bytecode":{"object":"0x60808060405234601557612cf9908161001a8239f35b5f80fdfe6080806040526004361015610012575f80fd5b5f3560e01c9081631f931c1c1461144457508063314f0df714611138578063472d3b1d146110665780635474152514610f985780635fc7ba5714610e4d5780639dda361b146107a4578063c64274741461049e578063c6a725d81461022d578063d74f8edd14610212578063dfceceae1461014e5763ee22610b14610095575f80fd5b3461014a57602036600319011261014a576004355f8181525f516020612c045f395f51905f5260205260409020546100d7906001600160a01b031615156122c3565b805f525f516020612c045f395f51905f5260205260ff600360405f2001541661010557610103906125df565b005b60405162461bcd60e51b815260206004820152601f60248201527f4d756c746973696746616365743a20416c7265616479206578656375746564006044820152606490fd5b5f80fd5b3461014a57602036600319011261014a576004355f525f516020612c245f395f51905f5260205260405f20604051806020835491828152019081935f5260205f20905f5b8181106101f357505050816101a8910382611e4c565b604051918291602083019060208452518091526040830191905f5b8181106101d1575050500390f35b82516001600160a01b03168452859450602093840193909201916001016101c3565b82546001600160a01b0316845260209093019260019283019201610192565b3461014a575f36600319011261014a57602060405160328152f35b3461014a57604036600319011261014a57600435610249611e07565b5f8281525f516020612c045f395f51905f526020526040902054610277906001600160a01b031615156122c3565b5f8281525f516020612ca45f395f51905f526020908152604080832033845290915290205460ff1661045a575f516020612ba45f395f51905f52546040516370a0823160e01b815233600482015290602090829060249082906001600160a01b03165afa90811561044f575f9161041d575b5080156103bb57825f525f516020612ca45f395f51905f5260205260405f2060018060a01b0333165f5260205260405f20600160ff19825416179055825f525f516020612c245f395f51905f526020526103463360405f206123c8565b825f525f516020612c645f395f51905f5260205260405f2060018060a01b0333165f5260205260405f205581337f4a504a94899432a9846e1aa406dceb1bcfd538bb839071d49d1e5e23f5be30ef5f80a3806103ac575b6103a357005b610103906125df565b506103b6816123f8565b61039d565b60405162461bcd60e51b815260206004820152603460248201527f4d756c746973696746616365743a20496e73756666696369656e742045524332604482015273302062616c616e636520746f20636f6e6669726d60601b6064820152608490fd5b90506020813d602011610447575b8161043860209383611e4c565b8101031261014a5751836102e9565b3d915061042b565b6040513d5f823e3d90fd5b606460405162461bcd60e51b815260206004820152602060248201527f4d756c746973696746616365743a20416c726561647920636f6e6669726d65646044820152fd5b3461014a57606036600319011261014a576104b7611d0e565b6044356001600160401b03811161014a576104d6903690600401611ff9565b906001600160a01b03168015610754576105849060035f516020612c845f395f51905f5254936040519261050984611e31565b8352602435602080850191825260408086019384525f606087018181528982525f516020612c045f395f51905f5290935220945185546001600160a01b0319166001600160a01b039190911617855590516001850155905161056e9060028501612200565b51151591019060ff801983541691151516179055565b61059b5f516020612c845f395f51905f525461215b565b5f516020612c845f395f51905f5255807fc0ba8fe4b176c1714197d43b9cc6bcf797a4a7461c5fe8d0ef6e184ae7601e515f80a25f8181525f516020612c045f395f51905f5260205260409020546105fd906001600160a01b031615156122c3565b5f8181525f516020612ca45f395f51905f526020908152604080832033845290915290205460ff1661045a575f516020612ba45f395f51905f52546040516370a0823160e01b81523360048201529190602090839060249082906001600160a01b03165afa91821561044f575f92610720575b5081156103bb575f8181525f516020612ca45f395f51905f526020908152604080832033808552908352818420805460ff191660011790558484525f516020612c245f395f51905f52835292209093916106c9916123c8565b815f525f516020612c645f395f51905f52835260405f2060018060a01b0333165f52835260405f205580337f4a504a94899432a9846e1aa406dceb1bcfd538bb839071d49d1e5e23f5be30ef5f80a3604051908152f35b9091506020813d60201161074c575b8161073c60209383611e4c565b8101031261014a57519082610670565b3d915061072f565b60405162461bcd60e51b815260206004820152602260248201527f4d756c746973696746616365743a20496e76616c69642064657374696e61746960448201526137b760f11b6064820152608490fd5b3461014a57608036600319011261014a576004356001600160401b03811161014a573660238201121561014a576107e5903690602481600401359101611e84565b6107ed611cf8565b6044356001600160401b03811161014a5761080c903690600401611ff9565b6064356001600160401b03811161014a573660238201121561014a5761083c903690602481600401359101611fc3565b91604051916307e4c70760e21b602084015261086f836108618385896024850161217d565b03601f198101855284611e4c565b3015610754576108fc5f516020612c845f395f51905f52549360036040519161089783611e31565b3083525f60208085018281526040808701948552606087018481528b85525f516020612c045f395f51905f52909352909220945185546001600160a01b0319166001600160a01b039190911617855590516001850155905161056e9060028501612200565b6109135f516020612c845f395f51905f525461215b565b5f516020612c845f395f51905f5255827fc0ba8fe4b176c1714197d43b9cc6bcf797a4a7461c5fe8d0ef6e184ae7601e515f80a25f8381525f516020612c045f395f51905f526020526040902054610975906001600160a01b031615156122c3565b5f8381525f516020612ca45f395f51905f526020908152604080832033845290915290205460ff1661045a575f516020612ba45f395f51905f52546040516370a0823160e01b815233600482015290602090829060249082906001600160a01b03165afa90811561044f575f91610e1b575b5080156103bb57835f525f516020612ca45f395f51905f5260205260405f2060018060a01b0333165f5260205260405f20600160ff19825416179055835f525f516020612c245f395f51905f52602052610a443360405f206123c8565b835f525f516020612c645f395f51905f5260205260405f2060018060a01b0333165f5260205260405f205582337f4a504a94899432a9846e1aa406dceb1bcfd538bb839071d49d1e5e23f5be30ef5f80a360405191610aa283611e31565b6001600160a01b039081168352602080840192835260408085018781525f606087018181528882527f337982b4a2f8b4593b3a06c087bfa2b1b0164e42e863750f9d819b4580cc640c90945291909120945185546001600160a01b03191693169290921784559151610b179060018501612200565b51805160028401916001600160401b038211610d1157610b4182610b3b855461208e565b856121b1565b602090601f8311600114610db15782610b9196959360039593610b79935f92610da6575b50508160011b915f199060031b1c19161790565b905551151591019060ff801983541691151516179055565b5f5b8351811015610d60575f8281525f516020612be45f395f51905f5260205260409020610bd4906001600160a01b03610bcb8488612147565b515116906123c8565b815f527f337982b4a2f8b4593b3a06c087bfa2b1b0164e42e863750f9d819b4580cc640a60205260405f20610c156020610c0e8488612147565b51016123eb565b906003821015610d4c578054600160401b811015610d1157610c3c91600182018155612070565b60ff80839493549260031b9316831b921b1916179055815f527f337982b4a2f8b4593b3a06c087bfa2b1b0164e42e863750f9d819b4580cc640b60205260405f20906040610c8a8287612147565b510151916040519283604081019160208083015280518093526020606083019101925f905b808210610d25575050610ccb925003601f198101855284611e4c565b8054600160401b811015610d1157610ce89160018201815561205b565b610cfe57600192610cf891612200565b01610b93565b634e487b7160e01b5f525f60045260245ffd5b634e487b7160e01b5f52604160045260245ffd5b84516001600160e01b03191683526020948501948894509092019160019190910190610caf565b634e487b7160e01b5f52602160045260245ffd5b50807fbb531b035043a23626af8c80867edaf5d99143dacafb0392e11353ff604e5570610d9b60209460405191829187835287830190611de3565b0390a2604051908152f35b015190508b80610b65565b90601f19831691845f52815f20925f5b818110610e035750926001928592610b919998966003989610610dec575b505050811b01905561056e565b01515f1983881b60f8161c191690558a8080610ddf565b92936020600181928786015181550195019301610dc1565b90506020813d602011610e45575b81610e3660209383611e4c565b8101031261014a5751866109e7565b3d9150610e29565b3461014a57602036600319011261014a57600435805f527f337982b4a2f8b4593b3a06c087bfa2b1b0164e42e863750f9d819b4580cc640c60205260405f206003810160ff815416610f40575f8381525f516020612c045f395f51905f526020526040902054610ec7906001600160a01b031615156122c3565b825f525f516020612c045f395f51905f5260205260ff600360405f20015416610105577f44e876d367cb04b52a0ddf76075551fe774e6f61547a4405c83b6b1654f7ec4691610f3b91610f19856125df565b600160ff198254161790556040519182916020835260026020840191016120c6565b0390a2005b60405162461bcd60e51b815260206004820152602a60248201527f4469616d6f6e6443757446616365743a2050726f706f73616c20616c726561646044820152691e48195e1958dd5d195960b21b6064820152608490fd5b3461014a57604036600319011261014a57600435801515810361014a57610fbd611e07565b5f915f915f516020612c845f395f51905f5254925b838110610fe457602085604051908152f35b8280611040575b8015611013575b610fff575b600101610fd2565b9361100b60019161215b565b949050610ff7565b50818015610ff25750805f525f516020612c045f395f51905f5260205260ff600360405f20015416610ff2565b50805f525f516020612c045f395f51905f5260205260ff600360405f2001541615610feb565b3461014a57604036600319011261014a576001600160a01b03611087611d0e565b1680156110e7576024357f4f3013c7b1e6655618f4cf0d94e4db7df74d61803838fc575c18cddf60dc3a11556bffffffffffffffffffffffff60a01b5f516020612ba45f395f51905f525416175f516020612ba45f395f51905f52555f80f35b60405162461bcd60e51b8152602060048201526024808201527f4d756c746973696746616365743a20496e76616c6964204552433230206164646044820152637265737360e01b6064820152608490fd5b3461014a57602036600319011261014a57600435805f527f337982b4a2f8b4593b3a06c087bfa2b1b0164e42e863750f9d819b4580cc640c60205260405f20815f525f516020612be45f395f51905f5260205260405f20549161119a83611e6d565b926111a86040519485611e4c565b8084526111b7601f1991611e6d565b015f5b81811061141a575050905f915b805f525f516020612be45f395f51905f5260205260405f205483101561138357805f525f516020612be45f395f51905f526020526112088360405f2061205b565b60018060a01b0391549060031b1c1692815f527f337982b4a2f8b4593b3a06c087bfa2b1b0164e42e863750f9d819b4580cc640a60205260ff61124e8260405f20612070565b90549060031b1c16936003851015610d4c576112a894835f527f337982b4a2f8b4593b3a06c087bfa2b1b0164e42e863750f9d819b4580cc640b6020526112af61129b8460405f2061205b565b50604051978880926120c6565b0387611e4c565b855186019560208181890198031261014a576020810151906001600160401b03821161014a57019086603f8301121561014a576020820151966112f188611e6d565b926112ff6040519485611e4c565b8884526020808086019a60051b8301010191821161014a57604001975b8189106113625750506001949596506040519261133884611e16565b83526020830152604082015261134e8287612147565b526113598186612147565b500191906111c7565b88516001600160e01b03198116810361014a5781526020988901980161131c565b6113ed848361140e600261140060018060a01b0384541660ff600386015416946113d9604051916113c2836113bb81600185016120c6565b0384611e4c565b6113d260405180978193016120c6565b0385611e4c565b60405197889760a0895260a0890190611d24565b9160208801528682036040880152611de3565b908482036060860152611de3565b90151560808301520390f35b60209060405161142981611e16565b5f81525f8382015260606040820152828288010152016111ba565b3461014a57606036600319011261014a576004356001600160401b03811161014a573660238201121561014a5780600401356001600160401b03811161014a573660248260051b8401011161014a5761149b611cf8565b91604435916001600160401b03831161014a573660238401121561014a578260040135946001600160401b03861161014a57366024878601011161014a577fc8fcad8db84d3cc18b4c41d551ea0ee66dd599cde068d998e57d5e09332c1320546001600160a01b03163303611cab57509161151f61152a9286946024369201611e84565b926024369201611fc3565b915f915b8051831015611a7e576115466020610c0e8584612147565b6003811015610d4c57806117295750906001600160a01b036115688484612147565b5151169160406115788583612147565b510151906115888251151561271d565b61159384151561277d565b61ffff61159f85612321565b54169081156116dc575b6001600160a01b03851696935f925b84518410156116c6576001600160e01b03196115d48587612147565b51165f8181525f516020612bc45f395f51905f5260205260409020546001600160a01b0316611663576001918161161661165b936116118c612321565b612847565b5f9081525f516020612bc45f395f51905f5260205260409020805461ffff60a01b198d166001600160b01b03199091161760a083901b61ffff60a01b16179055612887565b9301926115b8565b60405162461bcd60e51b815260206004820152603560248201527f4c69624469616d6f6e644375743a2043616e2774206164642066756e6374696f6044820152746e207468617420616c72656164792065786973747360581b6064820152608490fd5b5095925095505060019192505b0191909261152e565b6116ed6116e76127de565b86612b76565b61ffff5f516020612c445f395f51905f52541661ffff600161170e88612321565b01911661ffff1982541617905561172485612359565b6115a9565b6001810361192a5750906001600160a01b036117458484612147565b5151169160406117558583612147565b510151906117658251151561271d565b61177084151561277d565b61ffff61177c85612321565b54169081156118e3575b6001600160a01b03851696935f925b84518410156118d2576001600160e01b03196117b18587612147565b511690815f525f516020612bc45f395f51905f5260205260018060a01b0360405f2054169088821461186757826117ed60019461185f9461289a565b5f8181525f516020612bc45f395f51905f5260205260409020805461ffff60a01b191660a084901b61ffff60a01b1617905561182c816116118c612321565b5f525f516020612bc45f395f51905f5260205260405f208b6bffffffffffffffffffffffff60a01b825416179055612887565b930192611795565b60405162461bcd60e51b815260206004820152603860248201527f4c69624469616d6f6e644375743a2043616e2774207265706c6163652066756e60448201527f6374696f6e20776974682073616d652066756e6374696f6e00000000000000006064820152608490fd5b5095925095505060019192506116d3565b6118ee6116e76127de565b61ffff5f516020612c445f395f51905f52541661ffff600161190f88612321565b01911661ffff1982541617905561192585612359565b611786565b600203611a29576001600160a01b036119438483612147565b5151169160406119538584612147565b510151926119638451151561271d565b6119c5575f5b83518110156119b8576001906119b26001600160e01b031961198b8388612147565b5116805f525f516020612bc45f395f51905f52602052838060a01b0360405f20541661289a565b01611969565b50926001919492506116d3565b60405162461bcd60e51b815260206004820152603660248201527f4c69624469616d6f6e644375743a2052656d6f76652066616365742061646472604482015275657373206d757374206265206164647265737328302960501b6064820152608490fd5b60405162461bcd60e51b815260206004820152602760248201527f4c69624469616d6f6e644375743a20496e636f727265637420466163657443756044820152663a20b1ba34b7b760c91b6064820152608490fd5b907f8faa70878671ccd212d20771b795c50af8fd3ff6cf27f4bde57e5d4de0aeb673818593611ab3856040519384938461217d565b0390a16001600160a01b03811680611b3957505051611ace57005b60405162461bcd60e51b815260206004820152603c60248201527f4c69624469616d6f6e644375743a205f696e697420697320616464726573732860448201527f3029206275745f63616c6c64617461206973206e6f7420656d707479000000006064820152608490fd5b9091805115611c40575f9283923003611be9575b602082519201905af4611b5e6125b0565b9015611b6657005b805115611b955760405162461bcd60e51b815260206004820152908190611b91906024830190611de3565b0390fd5b60405162461bcd60e51b815260206004820152602660248201527f4c69624469616d6f6e644375743a205f696e69742066756e6374696f6e2072656044820152651d995c9d195960d21b6064820152608490fd5b611c3b604051611bfa606082611e4c565b602881527f4c69624469616d6f6e644375743a205f696e6974206164647265737320686173602082015267206e6f20636f646560c01b604082015282612b76565b611b4d565b60405162461bcd60e51b815260206004820152603d60248201527f4c69624469616d6f6e644375743a205f63616c6c6461746120697320656d707460448201527f7920627574205f696e6974206973206e6f7420616464726573732830290000006064820152608490fd5b62461bcd60e51b815260206004820152602260248201527f4c69624469616d6f6e643a204d75737420626520636f6e7472616374206f776e60448201526132b960f11b6064820152608490fd5b602435906001600160a01b038216820361014a57565b600435906001600160a01b038216820361014a57565b9080602083519182815201916020808360051b8301019401925f915b838310611d4f57505050505090565b9091929394601f198282030183528551606082019060018060a01b0381511683526020810151906003821015610d4c57604060809160209384870152015193606060408201528451809452019201905f905b808210611dc05750505060208060019297019301930191939290611d40565b82516001600160e01b031916845260209384019390920191600190910190611da1565b805180835260209291819084018484015e5f828201840152601f01601f1916010190565b60243590811515820361014a57565b606081019081106001600160401b03821117610d1157604052565b608081019081106001600160401b03821117610d1157604052565b90601f801991011681019081106001600160401b03821117610d1157604052565b6001600160401b038111610d115760051b60200190565b92919092611e9184611e6d565b93611e9f6040519586611e4c565b602085828152019060051b82019183831161014a5780915b838310611ec5575050505050565b82356001600160401b03811161014a57820160608187031261014a5760405190611eee82611e16565b80356001600160a01b038116810361014a5782526020810135600381101561014a5760208301526040810135906001600160401b03821161014a570186601f8201121561014a578035611f4081611e6d565b91611f4e6040519384611e4c565b81835260208084019260051b8201019089821161014a57602001915b818310611f87575050506040820152815260209283019201611eb7565b82356001600160e01b03198116810361014a57815260209283019201611f6a565b6001600160401b038111610d1157601f01601f191660200190565b929192611fcf82611fa8565b91611fdd6040519384611e4c565b82948184528183011161014a578281602093845f960137010152565b9080601f8301121561014a5781602061201493359101611fc3565b90565b5f516020612c445f395f51905f5254811015612047575f516020612c445f395f51905f525f5260205f2001905f90565b634e487b7160e01b5f52603260045260245ffd5b8054821015612047575f5260205f2001905f90565b9190918054831015612047575f52601f60205f208360051c01921690565b90600182811c921680156120bc575b60208310146120a857565b634e487b7160e01b5f52602260045260245ffd5b91607f169161209d565b5f92918154916120d58361208e565b808352926001811690811561212a57506001146120f157505050565b5f9081526020812093945091925b838310612110575060209250010190565b6001816020929493945483858701015201910191906120ff565b915050602093945060ff929192191683830152151560051b010190565b80518210156120475760209160051b010190565b5f1981146121695760010190565b634e487b7160e01b5f52601160045260245ffd5b6121936120149492606083526060830190611d24565b6001600160a01b039093166020820152808303604090910152611de3565b601f82116121be57505050565b5f5260205f20906020601f840160051c830193106121f6575b601f0160051c01905b8181106121eb575050565b5f81556001016121e0565b90915081906121d7565b91909182516001600160401b038111610d115761222781612221845461208e565b846121b1565b6020601f82116001146122655781906122569394955f9261225a5750508160011b915f199060031b1c19161790565b9055565b015190505f80610b65565b601f19821690835f52805f20915f5b8181106122ab57509583600195969710612293575b505050811b019055565b01515f1960f88460031b161c191690555f8080612289565b9192602060018192868b015181550194019201612274565b156122ca57565b60405162461bcd60e51b815260206004820152602960248201527f4d756c746973696746616365743a205472616e73616374696f6e20646f6573206044820152681b9bdd08195e1a5cdd60ba1b6064820152608490fd5b6001600160a01b03165f9081527fc8fcad8db84d3cc18b4c41d551ea0ee66dd599cde068d998e57d5e09332c131d6020526040902090565b5f516020612c445f395f51905f525490600160401b821015610d11576123a28260016123c694015f516020612c445f395f51905f52555f516020612c445f395f51905f5261205b565b81546001600160a01b0393841660039290921b91821b9390911b1916919091179055565b565b90815491600160401b831015610d1157826123a29160016123c69501815561205b565b516003811015610d4c5790565b5f516020612ba45f395f51905f52546040516318160ddd60e01b81525f93909291602090849060049082906001600160a01b03165afa92831561044f575f9361257c575b505f5b825f525f516020612c245f395f51905f5260205260405f205481101561250957825f525f516020612c245f395f51905f526020526124808160405f2061205b565b90545f8581525f516020612ca45f395f51905f526020908152604080832060039590951b9390931c6001600160a01b0316808352939052205460ff166124ca575b5060010161243f565b835f969296525f516020612c645f395f51905f5260205260405f209060018060a01b03165f5260205260405f20548101809111612169579360016124c1565b509290508115918215928361251f575b50505090565b9091925060648302928084046064149015171561216957612568577f4f3013c7b1e6655618f4cf0d94e4db7df74d61803838fc575c18cddf60dc3a1154910410155f8080612519565b634e487b7160e01b5f52601260045260245ffd5b9092506020813d6020116125a8575b8161259860209383611e4c565b8101031261014a5751915f61243c565b3d915061258b565b3d156125da573d906125c182611fa8565b916125cf6040519384611e4c565b82523d5f602084013e565b606090565b6125e8816123f8565b1561270b57805f525f516020612c045f395f51905f5260205260405f206003810190600160ff1983541617825560018060a01b038154169060026001820154910190604051915f9080549061263c8261208e565b91600181169081156126f457506001146126c2575b5050915f939181859403925af16126666125b0565b501561269357507f33e13ecb54c3076d8e8bb8c2881800a4d972b792045ffae98fdf46df365fed755f80a2565b907f526441bb6c1aba3c9a4a6ca1d6545da9c2333c8c48343ef398eb858d72b792365f80a2805460ff19169055565b9091505f5260205f205f905b8282106126e057505082018183612651565b6001816020925484880152019101906126ce565b60ff19168652505080151502830190508183612651565b63caca7d3160e01b5f5260045260245ffd5b1561272457565b60405162461bcd60e51b815260206004820152602b60248201527f4c69624469616d6f6e644375743a204e6f2073656c6563746f727320696e206660448201526a1858d95d081d1bc818dd5d60aa1b6064820152608490fd5b1561278457565b60405162461bcd60e51b815260206004820152602c60248201527f4c69624469616d6f6e644375743a204164642066616365742063616e2774206260448201526b65206164647265737328302960a01b6064820152608490fd5b604051906127ed606083611e4c565b6024825263636f646560e01b6040837f4c69624469616d6f6e644375743a204e657720666163657420686173206e6f2060208201520152565b9190918054831015612047575f52601c60205f208360031c019260021b1690565b90815491600160401b831015610d11578261286a9160016123c695018155612826565b90919063ffffffff83549160031b9260e01c831b921b1916179055565b61ffff1661ffff81146121695760010190565b906001600160a01b0382168015612b0b573014612aaf576001600160e01b0319165f8181525f516020612bc45f395f51905f52602052604090205460a01c61ffff16906128e683612321565b545f1981019290831161216957828103612a36575b5061290583612321565b805480156129dd575f19019061291b8282612826565b63ffffffff82549160031b1b19169055555f525f516020612bc45f395f51905f526020525f60408120551561294d5750565b5f516020612c445f395f51905f52545f1981019081116121695761ffff600161297584612321565b015416908082036129f1575b50505f516020612c445f395f51905f525480156129dd576001916129d1915f19016129ab81612017565b815490868060a01b039060031b1b191690555f516020612c445f395f51905f5255612321565b01805461ffff19169055565b634e487b7160e01b5f52603160045260245ffd5b6001612a22612a0261ffff93612017565b838060a01b0391549060031b1c16612a1d816123a287612017565b612321565b01911661ffff198254161790555f80612981565b612aa990612a4c84612a4787612321565b612826565b90549060031b1c60e01b612a678161286a84612a478a612321565b6001600160e01b0319165f9081525f516020612bc45f395f51905f5260205260409020805461ffff60a01b191660a09290921b61ffff60a01b16919091179055565b5f6128fb565b60405162461bcd60e51b815260206004820152602e60248201527f4c69624469616d6f6e644375743a2043616e27742072656d6f766520696d6d7560448201526d3a30b1363290333ab731ba34b7b760911b6064820152608490fd5b60405162461bcd60e51b815260206004820152603760248201527f4c69624469616d6f6e644375743a2043616e27742072656d6f76652066756e6360448201527f74696f6e207468617420646f65736e27742065786973740000000000000000006064820152608490fd5b3b15612b7f5750565b60405162461bcd60e51b815260206004820152908190611b91906024830190611de356fe4f3013c7b1e6655618f4cf0d94e4db7df74d61803838fc575c18cddf60dc3a10c8fcad8db84d3cc18b4c41d551ea0ee66dd599cde068d998e57d5e09332c131c337982b4a2f8b4593b3a06c087bfa2b1b0164e42e863750f9d819b4580cc64094f3013c7b1e6655618f4cf0d94e4db7df74d61803838fc575c18cddf60dc3a0c4f3013c7b1e6655618f4cf0d94e4db7df74d61803838fc575c18cddf60dc3a0fc8fcad8db84d3cc18b4c41d551ea0ee66dd599cde068d998e57d5e09332c131e4f3013c7b1e6655618f4cf0d94e4db7df74d61803838fc575c18cddf60dc3a0e4f3013c7b1e6655618f4cf0d94e4db7df74d61803838fc575c18cddf60dc3a124f3013c7b1e6655618f4cf0d94e4db7df74d61803838fc575c18cddf60dc3a0da264697066735822122089b37bc11c15b728eca4aa7662c4941b9271835ee429663ff00065e247db926364736f6c634300081c0033","linkReferences":{}},"methodIdentifiers":{"MAX_OWNER_COUNT()":"d74f8edd","confirmTransaction(uint256,bool)":"c6a725d8","diamondCut((address,uint8,bytes4[])[],address,bytes)":"1f931c1c","executeDiamondCutProposal(uint256)":"5fc7ba57","executeTransaction(uint256)":"ee22610b","getDiamondCutProposal(uint256)":"314f0df7","getSigners(uint256)":"dfceceae","getTransactionCount(bool,bool)":"54741525","initializeMultisig(address,uint256)":"472d3b1d","submitDiamondCutProposal((address,uint8,bytes4[])[],address,bytes,string)":"9dda361b","submitTransaction(address,uint256,bytes)":"c6427474"},"id":1}