{"abi":[{"type":"function","name":"facetAddress","inputs":[{"name":"_functionSelector","type":"bytes4","internalType":"bytes4"}],"outputs":[{"name":"facetAddress_","type":"address","internalType":"address"}],"stateMutability":"view"},{"type":"function","name":"facetAddresses","inputs":[],"outputs":[{"name":"facetAddresses_","type":"address[]","internalType":"address[]"}],"stateMutability":"view"},{"type":"function","name":"facetFunctionSelectors","inputs":[{"name":"_facet","type":"address","internalType":"address"}],"outputs":[{"name":"facetFunctionSelectors_","type":"bytes4[]","internalType":"bytes4[]"}],"stateMutability":"view"},{"type":"function","name":"facets","inputs":[],"outputs":[{"name":"facets_","type":"tuple[]","internalType":"struct IDiamondLoupe.Facet[]","components":[{"name":"facetAddress","type":"address","internalType":"address"},{"name":"functionSelectors","type":"bytes4[]","internalType":"bytes4[]"}]}],"stateMutability":"view"},{"type":"function","name":"supportsInterface","inputs":[{"name":"_interfaceId","type":"bytes4","internalType":"bytes4"}],"outputs":[{"name":"","type":"bool","internalType":"bool"}],"stateMutability":"view"}],"bytecode":{"object":"0x6080806040523460155761074a908161001a8239f35b5f80fdfe6080806040526004361015610012575f80fd5b5f3560e01c90816301ffc9a7146104325750806352ef6b2c1461036f5780637a0ed62714610169578063adfca15e146100b95763cdffacc614610053575f80fd5b346100b55760203660031901126100b55760043563ffffffff60e01b81168091036100b5575f527fc8fcad8db84d3cc18b4c41d551ea0ee66dd599cde068d998e57d5e09332c131c602052602060018060a01b0360405f205416604051908152f35b5f80fd5b346100b55760203660031901126100b5576004356001600160a01b03811681036100b5576001600160a01b03165f9081527fc8fcad8db84d3cc18b4c41d551ea0ee66dd599cde068d998e57d5e09332c131d6020526040902061011b906104f0565b6040518091602082016020835281518091526020604084019201905f5b818110610146575050500390f35b82516001600160e01b031916845285945060209384019390920191600101610138565b346100b5575f3660031901126100b5575f5160206106f55f395f51905f5254610191816104b0565b9061019f604051928361048e565b808252601f196101ae826104b0565b015f5b8181106103245750505f5b8181101561026d575f5160206106f55f395f51905f525f527fb5c239a29faf02594141bbc5e6982a9b85ba2b4d59c3ed3baaf4cb8e5e11cbef8101546001919061024e906001600160a01b03168061021484886104c8565b51526001600160a01b03165f9081527fc8fcad8db84d3cc18b4c41d551ea0ee66dd599cde068d998e57d5e09332c131d6020526040902090565b610265602061025d84886104c8565b5101916104f0565b9052016101bc565b826040518091602082016020835281518091526040830190602060408260051b8601019301915f905b8282106102a557505050500390f35b919390929450603f1986820301825284516020606081604085019360018060a01b0381511686520151936040838201528451809452019201905f905b808210610301575050506020806001929601920192018594939192610296565b82516001600160e01b0319168452602093840193909201916001909101906102e1565b60405190604082019180831067ffffffffffffffff84111761035b576020926040525f8152606083820152828287010152016101b1565b634e487b7160e01b5f52604160045260245ffd5b346100b5575f3660031901126100b5576040518060205f5160206106f55f395f51905f5254928381520180925f5160206106f55f395f51905f525f5260205f20905f5b81811061041357505050816103c891038261048e565b604051918291602083019060208452518091526040830191905f5b8181106103f1575050500390f35b82516001600160a01b03168452859450602093840193909201916001016103e3565b82546001600160a01b03168452602090930192600192830192016103b2565b346100b55760203660031901126100b5576004359063ffffffff60e01b82168092036100b5576020915f527fc8fcad8db84d3cc18b4c41d551ea0ee66dd599cde068d998e57d5e09332c131f825260ff60405f20541615158152f35b90601f8019910116810190811067ffffffffffffffff82111761035b57604052565b67ffffffffffffffff811161035b5760051b60200190565b80518210156104dc5760209160051b010190565b634e487b7160e01b5f52603260045260245ffd5b90604051918281549182825260208201905f5260205f20925f905b80600783011061064f57610561945491818110610630575b818110610611575b8181106105f2575b8181106105d3575b8181106105b4575b818110610595575b818110610578575b10610563575b50038361048e565b565b6001600160e01b03191681526020015f610559565b602083811b6001600160e01b031916855290930192600101610553565b604083901b6001600160e01b031916845260209093019260010161054b565b606083901b6001600160e01b0319168452602090930192600101610543565b608083901b6001600160e01b031916845260209093019260010161053b565b60a083901b6001600160e01b0319168452602090930192600101610533565b60c083901b6001600160e01b031916845260209093019260010161052b565b60e083901b6001600160e01b0319168452602090930192600101610523565b916008919350610100600191865463ffffffff60e01b8160e01b16825263ffffffff60e01b8160c01b16602083015263ffffffff60e01b8160a01b16604083015263ffffffff60e01b8160801b16606083015263ffffffff60e01b8160601b16608083015263ffffffff60e01b8160401b1660a083015263ffffffff60e01b8160201b1660c083015263ffffffff60e01b1660e082015201940192018592939161050b56fec8fcad8db84d3cc18b4c41d551ea0ee66dd599cde068d998e57d5e09332c131ea26469706673582212207f5c480e306a6e69ade19c5e60b6f91a7c05eee358d5ea73b0c4b7e2cf0cefcd64736f6c634300081c0033","linkReferences":{}},"methodIdentifiers":{"facetAddress(bytes4)":"cdffacc6","facetAddresses()":"52ef6b2c","facetFunctionSelectors(address)":"adfca15e","facets()":"7a0ed627","supportsInterface(bytes4)":"01ffc9a7"},"id":3}