{"abi":[{"type":"function","name":"test2Func1","inputs":[],"outputs":[],"stateMutability":"nonpayable"},{"type":"function","name":"test2Func10","inputs":[],"outputs":[],"stateMutability":"nonpayable"},{"type":"function","name":"test2Func11","inputs":[],"outputs":[],"stateMutability":"nonpayable"},{"type":"function","name":"test2Func12","inputs":[],"outputs":[],"stateMutability":"nonpayable"},{"type":"function","name":"test2Func13","inputs":[],"outputs":[],"stateMutability":"nonpayable"},{"type":"function","name":"test2Func14","inputs":[],"outputs":[],"stateMutability":"nonpayable"},{"type":"function","name":"test2Func15","inputs":[],"outputs":[],"stateMutability":"nonpayable"},{"type":"function","name":"test2Func16","inputs":[],"outputs":[],"stateMutability":"nonpayable"},{"type":"function","name":"test2Func17","inputs":[],"outputs":[],"stateMutability":"nonpayable"},{"type":"function","name":"test2Func18","inputs":[],"outputs":[],"stateMutability":"nonpayable"},{"type":"function","name":"test2Func19","inputs":[],"outputs":[],"stateMutability":"nonpayable"},{"type":"function","name":"test2Func2","inputs":[],"outputs":[],"stateMutability":"nonpayable"},{"type":"function","name":"test2Func20","inputs":[],"outputs":[],"stateMutability":"nonpayable"},{"type":"function","name":"test2Func3","inputs":[],"outputs":[],"stateMutability":"nonpayable"},{"type":"function","name":"test2Func4","inputs":[],"outputs":[],"stateMutability":"nonpayable"},{"type":"function","name":"test2Func5","inputs":[],"outputs":[],"stateMutability":"nonpayable"},{"type":"function","name":"test2Func6","inputs":[],"outputs":[],"stateMutability":"nonpayable"},{"type":"function","name":"test2Func7","inputs":[],"outputs":[],"stateMutability":"nonpayable"},{"type":"function","name":"test2Func8","inputs":[],"outputs":[],"stateMutability":"nonpayable"},{"type":"function","name":"test2Func9","inputs":[],"outputs":[],"stateMutability":"nonpayable"}],"bytecode":{"object":"0x608060405234801561001057600080fd5b50610173806100206000396000f3fe608060405234801561001057600080fd5b506004361061012c5760003560e01c80638ee8be30116100ad578063d2f0c73e11610071578063d2f0c73e14610131578063e5f687b214610131578063e7de23a414610131578063ea36b55814610131578063ef3f4d78146101315761012c565b80638ee8be301461013157806391d0396b14610131578063c670641d14610131578063ca5fa5c014610131578063caae8f23146101315761012c565b80632e463958116100f45780632e463958146101315780635fd6312b146101315780636dc16b0114610131578063792a8e2e14610131578063884280a6146101315761012c565b806303feeeae146101315780630c103a93146101315780630e4cd7fc14610131578063148843091461013157806317fd06e714610131575b600080fd5b61013961013b565b005b56fea2646970667358221220bd9e432c0ebc4d25d517c5292bb6f30e790c476b9bbf3c6f79258b8a4f454c5064736f6c63430007060033","linkReferences":{}},"methodIdentifiers":{"test2Func1()":"ea36b558","test2Func10()":"8ee8be30","test2Func11()":"884280a6","test2Func12()":"ca5fa5c0","test2Func13()":"6dc16b01","test2Func14()":"91d0396b","test2Func15()":"03feeeae","test2Func16()":"2e463958","test2Func17()":"14884309","test2Func18()":"0c103a93","test2Func19()":"5fd6312b","test2Func2()":"e7de23a4","test2Func20()":"792a8e2e","test2Func3()":"0e4cd7fc","test2Func4()":"c670641d","test2Func5()":"d2f0c73e","test2Func6()":"17fd06e7","test2Func7()":"ef3f4d78","test2Func8()":"e5f687b2","test2Func9()":"caae8f23"},"id":6}