{"abi":[{"type":"function","name":"supportsInterface","inputs":[{"name":"_interfaceID","type":"bytes4","internalType":"bytes4"}],"outputs":[{"name":"","type":"bool","internalType":"bool"}],"stateMutability":"view"},{"type":"function","name":"test1Func1","inputs":[],"outputs":[],"stateMutability":"nonpayable"},{"type":"function","name":"test1Func10","inputs":[],"outputs":[],"stateMutability":"nonpayable"},{"type":"function","name":"test1Func11","inputs":[],"outputs":[],"stateMutability":"nonpayable"},{"type":"function","name":"test1Func12","inputs":[],"outputs":[],"stateMutability":"nonpayable"},{"type":"function","name":"test1Func13","inputs":[],"outputs":[],"stateMutability":"nonpayable"},{"type":"function","name":"test1Func14","inputs":[],"outputs":[],"stateMutability":"nonpayable"},{"type":"function","name":"test1Func15","inputs":[],"outputs":[],"stateMutability":"nonpayable"},{"type":"function","name":"test1Func16","inputs":[],"outputs":[],"stateMutability":"nonpayable"},{"type":"function","name":"test1Func17","inputs":[],"outputs":[],"stateMutability":"nonpayable"},{"type":"function","name":"test1Func18","inputs":[],"outputs":[],"stateMutability":"nonpayable"},{"type":"function","name":"test1Func19","inputs":[],"outputs":[],"stateMutability":"nonpayable"},{"type":"function","name":"test1Func2","inputs":[],"outputs":[],"stateMutability":"nonpayable"},{"type":"function","name":"test1Func20","inputs":[],"outputs":[],"stateMutability":"nonpayable"},{"type":"function","name":"test1Func3","inputs":[],"outputs":[],"stateMutability":"nonpayable"},{"type":"function","name":"test1Func4","inputs":[],"outputs":[],"stateMutability":"nonpayable"},{"type":"function","name":"test1Func5","inputs":[],"outputs":[],"stateMutability":"nonpayable"},{"type":"function","name":"test1Func6","inputs":[],"outputs":[],"stateMutability":"nonpayable"},{"type":"function","name":"test1Func7","inputs":[],"outputs":[],"stateMutability":"nonpayable"},{"type":"function","name":"test1Func8","inputs":[],"outputs":[],"stateMutability":"nonpayable"},{"type":"function","name":"test1Func9","inputs":[],"outputs":[],"stateMutability":"nonpayable"},{"type":"event","name":"TestEvent","inputs":[{"name":"something","type":"address","indexed":false,"internalType":"address"}],"anonymous":false}],"bytecode":{"object":"0x608060405234801561001057600080fd5b506101e7806100206000396000f3fe608060405234801561001057600080fd5b50600436106101375760003560e01c806351b68a4d116100b85780639abf97aa1161007c5780639abf97aa14610165578063b0e8fcc714610165578063cbb835f614610165578063cd0bae0914610165578063cf3bbe1814610165578063db32da151461016557610137565b806351b68a4d1461016557806371a99d6f1461016557806377e9d0d61461016557806381b5207d1461016557806387952d221461016557610137565b806324c1d5a7116100ff57806324c1d5a714610165578063292c460d146101655780632cb83248146101655780634484b3b91461016557806350eb3f431461016557610137565b806301ffc9a71461013c5780630716c2ae14610165578063110460471461016557806319c841ab1461016557806319e3b53314610165575b600080fd5b61014f61014a366004610177565b61016f565b60405161015c91906101a6565b60405180910390f35b61016d610175565b005b50600090565b565b600060208284031215610188578081fd5b81356001600160e01b03198116811461019f578182fd5b9392505050565b90151581526020019056fea264697066735822122036cfe180f91b23c0fe4a662fca25133f5d75c46473a4854c7b1e66e4b6d5f6ed64736f6c63430007060033","linkReferences":{}},"methodIdentifiers":{"supportsInterface(bytes4)":"01ffc9a7","test1Func1()":"19e3b533","test1Func10()":"87952d22","test1Func11()":"50eb3f43","test1Func12()":"81b5207d","test1Func13()":"19c841ab","test1Func14()":"51b68a4d","test1Func15()":"2cb83248","test1Func16()":"77e9d0d6","test1Func17()":"4484b3b9","test1Func18()":"9abf97aa","test1Func19()":"292c460d","test1Func2()":"0716c2ae","test1Func20()":"b0e8fcc7","test1Func3()":"11046047","test1Func4()":"cf3bbe18","test1Func5()":"24c1d5a7","test1Func6()":"cbb835f6","test1Func7()":"71a99d6f","test1Func8()":"db32da15","test1Func9()":"cd0bae09"},"id":5}